:020000040800F2
:1000000000200020B90000088510000899100008A1
:1000100000000000000000000000000000000000E0
:100020000000000000000000000000008510000833
:100030000000000000000000851000088510000886
:10004000851000088510000885100008851000083C
:10005000851000088510000885100008851000082C
:1000600000000000851000088510000885100008B9
:100070008510000885100008000000001B02000821
:1000800000000000851000080000000000000000D3
:100090008510000800000000851000088510000889
:1000A000851000088510000885100008ED0500087F
:1000B0009D0B00088510000800F060FF00F022FF93
:1000C000E1235B02180000F0E9F962B6C04600F0D7
:1000D0004FF9024B180000F051FBFEE73416000800
:1000E00080B500AF224B1A68214B01210A431A60E8
:1000F000C0461F4B1B6804221340FAD01C4BDA6821
:100100001B4B03218A43DA60194BDA68184B012133
:100110000A43DA60C046164BDB680C221340042BFE
:10012000F9D1134BDA68124B8821C9030A43DA600C
:100130000F4B1A680E4B802149040A431A60C046CF
:100140000B4B1A6880239B041340F9D0084BDA68E4
:10015000074B03210A43DA60C046054BDB680C22DB
:1001600013400C2BF9D1C046C046BD4680BDC046E9
:100170000010024080B582B000AF78607B68002B31
:1001800001D101237B608023DB051A688023DB0516
:1001900001218A431A607B681B0219000A4801F09A
:1001A000D3F803009BB2013B9AB28023DB059A622D
:1001B0008023DB051A688023DB0501210A431A60CE
:1001C000C046BD4602B080BD0048E80180B500AF22
:1001D0008023DB051A6A8023DB0501210A431A62AA
:1001E000C046BD4680BD80B500AF8023DB051A6ADE
:1001F0008023DB0501218A431A62C046BD4680BDCB
:1002000080B500AFA023DB055A69A023DB050121DF
:100210004A405A61C046BD4680BD80B500AF8023CC
:10022000DB051A698023DB0501218A431A61094B2A
:100230001B685A1C074B1A60064B1A68FA239B006E
:100240009A4204DBFFF7DCFF024B00221A60C04633
:10025000BD4680BD0800002080B500AFFFF740FF1D
:100260003F4BDA6A3E4B01210A43DA62A023DB05E9
:100270001A68A023DB0503218A431A60A023DB054B
:100280001A68A023DB0501210A431A60A023DB05BD
:100290001A68A023DB05920092081A60A023DB05F0
:1002A0001A68A023DB05802109060A431A60A023EF
:1002B000DB055A6AA023DB05A021C9050A435A625F
:1002C000274B9A6B264B01210A439A63254B1B68E7
:1002D0001B021900244801F037F803009BB2013BD0
:1002E0009AB28023DB059A628023DB05FF22DA6263
:1002F0008023DB0580225A638023DB059A698023F3
:10030000DB0568210A439A618023DB051A6A802392
:10031000DB0501210A431A628023DB051A6880236A
:10032000DB0580210A431A608023DB051A688023DD
:10033000DB0501210A431A608023DB05DA6880238C
:10034000DB0501210A43DA60084B1A68074B80215C
:1003500009020A431A6062B6C046C046BD4680BD67
:1003600000100240000000200048E80100E100E029
:1003700080B500AFFFF770FFFFF728FFC8239B0091
:100380001800FFF7F7FEFEE790B585B000AF786084
:100390003960184B1B68002B02D101235B4224E01B
:1003A0000023FB600AE0FB685A1CFA603A68D41824
:1003B000114B180000F0ADF9030023707B68013B7E
:1003C0001A00FB68934205D20B4B180000F0CCF9E1
:1003D000031EE8D1FB68002B06D03A68FB68D318EF
:1003E00000221A70FB6800E000231800BD4605B02B
:1003F00090BDC046A40000200C00002080B584B051
:1004000000AF78603960224B1B68002B02D10123BA
:100410005B4238E07B683F2B0BDCC0461D4B18006D
:1004200000F0A2F903004022D21A7B689A42F5D369
:1004300002E002235B4226E00023FB600BE03A6807
:10044000FB68D3181A78134B1100180000F030F92C
:10045000FB680133FB607B68FA689A42EFD30E4B6E
:100460001B68082213400DD10B4B1A680A4B082158
:100470000A431A60074B180000F04BF903001A00FA
:10048000054B9A6200231800BD4604B080BDC046EB
:10049000A4000020580000200038014080B584B03E
:1004A00000AF786072B6C046454B00229A64444B58
:1004B0009A6C434B5A64424B5A6C414B1A64414B01
:1004C00000229A643F4B9A6C3E4B5A643D4B5A6CE7
:1004D0003C4B1A643C4B01221A603C4B00221A60D0
:1004E0003B4BDA6A3A4B01210A43DA62394BFB6033
:1004F0007968F86800F0B2FF0300FB60A023DB0519
:100500009A68A023DB058021C9020A439A60A023D0
:10051000DB055A68A023DB052F490A405A60A02357
:10052000DB051B682D4A1A40A023DB058021090347
:100530000A431A60A023DB055A6AA023DB05402189
:100540000A435A62A023DB051B68254A1A40A023F0
:10055000DB05802189030A431A60A023DB055A6A60
:10056000A023DB058021C9000A435A62184B5A6B4D
:10057000174B8021C9010A435A631A4B1A68194B59
:100580006C210A431A60174B00225A60154B002257
:100590009A60144BFA68DA60124B1A68114B012109
:1005A0000A431A60104B1A680F4B802109050A4351
:1005B0001A6062B6C046C046BD4604B080BDC046A3
:1005C0000C00002058000020A4000020A8000020FB
:1005D000001002400048E801FFFDFFFFFFFFF3FFAE
:1005E000FFFFCFFF0038014000E100E080B500AF21
:1005F000084BDB698022134001D000F025F8054B41
:10060000DB692022134001D000F006F8C046BD4649
:1006100080BDC0460038014080B500AF074B5B6A23
:10062000DAB2074B1100180000F042F8031E02D0A6
:10063000044B01221A60C046BD4680BD003801400F
:100640000C000020A800002080B500AF164B180059
:1006500000F08AF8031E08D0134B180000F059F878
:1006600003001A00114B9A621BE0104B1A680F4BE3
:1006700008218A431A600D4BDB694022134005D0E4
:100680000A4B1A6A094B40210A431A62074BDB697D
:100690008022134005D0054B9A69044B10210A4370
:1006A0009A61C046BD4680BD580000200038014018
:1006B00080B582B000AF78600A00FB1C1A707B68BE
:1006C0001A6C7B685B6C9A4205D17B689B6C002B33
:1006D00001D0012319E072B6C0467B681B6C591C1F
:1006E0007A6811647A68F91C0978D1547B689B6C2C
:1006F0005A1C7B689A647B681B6C402B02D17B6818
:1007000000221A6462B6C04600231800BD4602B03B
:1007100080BD80B584B000AF78607B689B6C002B97
:1007200001D100231CE072B6C0467B685B6C591C8B
:100730007A6851640F22BA187968CB5C13707B68B1
:100740005B6C402B02D17B6800225A647B689B6CF7
:100750005A1E7B689A6462B6C0460F23FB181B784A
:100760001800BD4604B080BD80B582B000AF78608F
:100770007B689B6C1800BD4602B080BD80B582B01E
:1007800000AF78600B4B1B68002B09D101235B4243
:100790000BE07B685A1C7A6019000120FFF72EFEDF
:1007A0007B681B78002BF4D100231800BD4602B0F3
:1007B00080BDC046A400002080B582B000AF02001A
:1007C000FB1D1A70FB1D19000120FFF717FEC04624
:1007D000BD4602B080BD80B500AF044B1800FFF7E6
:1007E00098FF03001800BD4680BDC0460C000020E5
:1007F000B0B584B000AF786039601E4B1B68002B29
:1008000002D101235B4231E00023FB600B23FB1884
:1008100000221A7017E0C046174B1800FFF7A4FF1C
:10082000031EF9D00B257C19134B1800FFF771FF3D
:1008300003002370FB685A1CFA601A007B689B183F
:100840007A1912781A703B68013BFA689A4204DA06
:100850000B23FB181B780D2BDDD1FB68002B04DD6F
:10086000FB687A68D31800221A70FB681800BD462E
:1008700004B0B0BDA40000200C00002090B583B0EF
:1008800000AFFC1DFFF7A7FF03002370FB1D1B78C3
:100890001800FFF791FFFB1D1B781800BD4603B041
:1008A00090BDB0B584B000AF78603960214B1B6853
:1008B000002B02D101235B4237E00023FB600B23B6
:1008C000FB1800221A701DE0C0461B4B1800FFF7F2
:1008D0004BFF031EF9D00B257C19174B1800FFF7AF
:1008E00018FF030023702C003B191B781800FFF73A
:1008F00063FFFB685A1CFA601A007B689B183A1960
:1009000012781A703B68013BFA689A4204DA0B23AA
:10091000FB181B780D2BD7D1FB68002B04DDFB687F
:100920007A68D31800221A70FB681800BD4604B01C
:10093000B0BDC046A40000200C00002090B585B0DA
:1009400000AF78603960184B1B68002B02D101237F
:100950005B4224E00023FB600AE0FB685A1CFA605B
:100960003A68D418114B180000F0ABF9030023705B
:100970007B68013B1A00FB68934205D20B4B1800C1
:1009800000F0CAF9031EE8D1FB68002B06D03A68D4
:10099000FB68D31800221A70FB6800E000231800DF
:1009A000BD4605B090BDC04648010020B000002003
:1009B00080B584B000AF78603960224B1B68002B93
:1009C00002D101235B4238E07B683F2B0BDCC04641
:1009D0001D4B180000F0A0F903004022D21A7B68DA
:1009E0009A42F5D302E002235B4226E00023FB603B
:1009F0000BE03A68FB68D3181A78134B1100180003
:100A000000F02EF9FB680133FB607B68FA689A42BC
:100A1000EFD30E4B1B68082213400DD10B4B1A6805
:100A20000A4B08210A431A60074B180000F049F9E5
:100A300003001A00054B9A6200231800BD4604B05B
:100A400080BDC04648010020FC000020004400405A
:100A500080B584B000AF786072B6C046454B0022C6
:100A60009A64444B9A6C434B5A64424B5A6C414BC8
:100A70001A64414B00229A643F4B9A6C3E4B5A6475
:100A80003D4B5A6C3C4B1A643C4B01221A603C4B68
:100A900000221A603B4BDA6A3A4B01210A43DA62C0
:100AA000394BFB607968F86800F0D8FC0300FB6004
:100AB000A023DB059A68A023DB05802149050A43B2
:100AC0009A60A023DB055A68A023DB052F490A4062
:100AD0005A60A023DB051B682D4A1A40A023DB05C2
:100AE000802189050A431A60A023DB055A6AA023E6
:100AF000DB058021C9040A435A62A023DB051B6879
:100B00009B009A08A023DB05802109060A431A608E
:100B1000A023DB055A6AA023DB058021C9050A430F
:100B20005A62184B9A6B174B802189020A439A63C9
:100B3000184B1A68174B6C210A431A60154B002298
:100B40005A60144B00229A60124BFA68DA60114B1B
:100B50001A68104B01210A431A600F4B1A680E4B9A
:100B6000802149050A431A6062B6C046C046BD46A8
:100B700004B080BDB0000020FC000020480100202F
:100B80004C010020001002400048E801FFBFFFFFB9
:100B9000FFFFFFCF0044004000E100E080B500AF60
:100BA000084BDB698022134001D000F025F8054B8B
:100BB000DB692022134001D000F006F8C046BD4694
:100BC00080BDC0460044004080B500AF074B5B6A63
:100BD000DAB2074B1100180000F042F8031E02D0F1
:100BE000044B01221A60C046BD4680BD004400404F
:100BF000B00000204C01002080B500AF164B18005B
:100C000000F08AF8031E08D0134B180000F059F8C2
:100C100003001A00114B9A621BE0104B1A680F4B2D
:100C200008218A431A600D4BDB694022134005D02E
:100C30000A4B1A6A094B40210A431A62074BDB69C7
:100C40008022134005D0054B9A69044B10210A43BA
:100C50009A61C046BD4680BDFC00002000440040B3
:100C600080B582B000AF78600A00FB1C1A707B6808
:100C70001A6C7B685B6C9A4205D17B689B6C002B7D
:100C800001D0012319E072B6C0467B681B6C591C69
:100C90007A6811647A68F91C0978D1547B689B6C76
:100CA0005A1C7B689A647B681B6C402B02D17B6862
:100CB00000221A6462B6C04600231800BD4602B086
:100CC00080BD80B584B000AF78607B689B6C002BE2
:100CD00001D100231CE072B6C0467B685B6C591CD6
:100CE0007A6851640F22BA187968CB5C13707B68FC
:100CF0005B6C402B02D17B6800225A647B689B6C42
:100D00005A1E7B689A6462B6C0460F23FB181B7894
:100D10001800BD4604B080BD80B582B000AF7860D9
:100D20007B689B6C1800BD4602B080BD80B582B068
:100D300000AF78600B4B1B68002B09D101235B428D
:100D40000BE07B685A1C7A6019000120FFF730FE27
:100D50007B681B78002BF4D100231800BD4602B03D
:100D600080BDC0464801002080B582B000AF0200BF
:100D7000FB1D1A70FB1D19000120FFF719FEC0466C
:100D8000BD4602B080BD80B500AF044B1800FFF730
:100D900098FF03001800BD4680BDC046B00000208B
:100DA000B0B584B000AF786039601E4B1B68002B73
:100DB00002D101235B4231E00023FB600B23FB18CF
:100DC00000221A7017E0C046174B1800FFF7A4FF67
:100DD000031EF9D00B257C19134B1800FFF771FF88
:100DE00003002370FB685A1CFA601A007B689B188A
:100DF0007A1912781A703B68013BFA689A4204DA51
:100E00000B23FB181B780A2BDDD1FB68002B04DDBC
:100E1000FB687A68D31800221A70FB681800BD4678
:100E200004B0B0BD48010020B000002080B500AF84
:100E3000034B1800FFF770FF03001800BD4680BD8C
:100E4000B000002090B583B000AFFC1DFFF79BFF02
:100E500003002370FB1D1B781800FFF785FFFB1DA7
:100E60001B781800BD4603B090BDB0B584B000AF8C
:100E700078603960214B1B68002B02D101235B4253
:100E800037E00023FB600B23FB1800221A701DE0E3
:100E9000C0461B4B1800FFF73FFF031EF9D00B2580
:100EA0007C19174B1800FFF70CFF030023702C0070
:100EB0003B191B781800FFF757FFFB685A1CFA60B4
:100EC0001A007B689B183A1912781A703B68013B2C
:100ED000FA689A4204DA0B23FB181B780D2BD7D142
:100EE000FB68002B04DDFB687A68D31800221A70B7
:100EF000FB681800BD4604B0B0BDC04648010020E4
:100F0000B000002080B582B000AF164B7B60164B5E
:100F10003B6007E07A68131D7B603B68191D3960F0
:100F200012681A603A68114B9A42F3D304E03B68A6
:100F30001A1D3A6000221A603A680D4B9A42F6D3A5
:100F40000C4B3B6004E03B681A1D3A601B689847F5
:100F50003A68094B9A42F6D3C046C046BD4602B035
:100F600080BDC046B0160008000000200800002028
:100F700060010020B0160008B016000880B500AF70
:100F80003B4B1A683A4B01210A431A60C046384B62
:100F90001B6804221340FAD0354B0122DA60C046A8
:100FA000334BDB680C221340042BF9D1314B1A6808
:100FB000304B02210A431A602E4B1A682D4B012137
:100FC0000A431A602A4B9A6B294B802149050A4330
:100FD0009A63294B802212011A60C046264B5B6837
:100FE00010221340FAD1224BDA68214B23490A40E0
:100FF000DA601F4BDA681E4B8821C9030A43DA60A6
:101000001B4A1B4BD268DA60194A194BD268DA6066
:10101000174A174BD268DA60154B1A68144B1849F7
:101020000A401A60124B1A68114B802149040A4386
:101030001A60C0460E4B1A6880239B041340F9D0F7
:101040000B4BDA680A4B03218A43DA60084BDA68F3
:10105000074B03210A43DA60C046054BDB680C22CC
:1010600013400C2BF9D1C046C046BD4680BDC046DA
:10107000001002400020024000700040FFFF02FF0D
:10108000FFFFFFFE80B500AF024B1800FFF776FBB5
:10109000FEE7C0465C16000880B500AF024B1800A2
:1010A000FFF76CFBFEE7C0468C16000880B582B0E7
:1010B00000AF7860FEE780B582B000AF78600123B2
:1010C0005B421800BD4602B080BD80B584B000AF61
:1010D000F860B9607A60044B0C221A6001235B420D
:1010E0001800BD4604B080BD5C01002080B500AF93
:1010F000034B0B221A6001235B421800BD4680BDE2
:101100005C01002080B582B000AF786039603B6838
:10111000802292015A6000231800BD4602B080BDB3
:1011200080B500AF01231800BD4680BD80B582B0F8
:1011300000AF78603960044B16221A6001235B42CD
:101140001800BD4602B080BD5C01002080B582B0B1
:1011500000AF78603960044B1F221A6001235B42A4
:101160001800BD4602B080BD5C01002080B584B08F
:1011700000AFF860B9607A6000231800BD4604B083
:1011800080BD80B582B000AF786039603B68802256
:1011900092015A6000231800BD4602B080BD80B5A0
:1011A00082B000AF786001235B421800BD4602B0F8
:1011B00080BD80B582B000AF7860044B02221A6017
:1011C00001235B421800BD4602B080BD5C010020D7
:1011D00080B582B000AF7860044B0A221A60012308
:1011E0005B421800BD4602B080BDC0465C010020D5
:1011F00080B582B000AF78607B68022B01D80123F4
:1012000003E0044B09221A6000231800BD4602B017
:1012100080BDC0465C01002080B586B000AF78601C
:10122000124B7B61124B3B61124B1B68002B02D1AE
:10123000104B7A691A600F4B1B68FB600D4B1A68E4
:101240007B68D3183A699A4205D20B4B0C221A607C
:1012500001235B4206E0074B1A687B68D218054BF6
:101260001A60FB681800BD4606B080BD6001002012
:1012700000100020580100205C01002080B588B0DB
:1012800000AFF860B9607A600023BB61FB68002B97
:1012900022D10023FB611AE0FFF79DFA03001A0038
:1012A00017217B181A70BB685A1CBA607A1812781A
:1012B000D2B21A70BB690133BB617B181B78DBB2F9
:1012C0000A2B01D1BB690EE0FB690133FB61FA69AE
:1012D0007B689A42E0DB05E0054B09221A60012396
:1012E0005B4200E0BB691800BD4608B080BDC04647
:1012F0005C01002080B586B000AFF860B9607A600C
:10130000FB68013B012B11D800237B6109E0BB681E
:101310005A1CBA601B781800FFF74EFA7B6901333C
:101320007B617A697B689A42F1DB05E0054B092213
:101330001A6001235B4200E07B681800BD4606B0DE
:1013400080BDC0465C010020002243088B4274D35C
:1013500003098B425FD3030A8B4244D3030B8B42B6
:1013600028D3030C8B420DD3FF22090212BA030CBF
:101370008B4202D31212090265D0030B8B4219D3A0
:1013800000E0090AC30B8B4201D3CB03C01A5241C0
:10139000830B8B4201D38B03C01A5241430B8B4208
:1013A00001D34B03C01A5241030B8B4201D30B03F1
:1013B000C01A5241C30A8B4201D3CB02C01A524118
:1013C000830A8B4201D38B02C01A5241430A8B42DB
:1013D00001D34B02C01A5241030A8B4201D30B02C4
:1013E000C01A5241CDD2C3098B4201D3CB01C01ADE
:1013F000524183098B4201D38B01C01A52414309E8
:101400008B4201D34B01C01A524103098B4201D3D5
:101410000B01C01A5241C3088B4201D3CB00C01A42
:10142000524183088B4201D38B00C01A52414308BA
:101430008B4201D34B00C01A5241411A00D20146DF
:10144000524110467047FFE701B5002000F0F0F868
:1014500002BDC0460029F7D076E7704703460B432C
:101460007FD4002243088B4274D303098B425FD39D
:10147000030A8B4244D3030B8B4228D3030C8B42C9
:101480000DD3FF22090212BA030C8B4202D31212AF
:10149000090265D0030B8B4219D300E0090AC30B84
:1014A0008B4201D3CB03C01A5241830B8B4201D331
:1014B0008B03C01A5241430B8B4201D34B03C01A1A
:1014C0005241030B8B4201D30B03C01A5241C30A92
:1014D0008B4201D3CB02C01A5241830A8B4201D303
:1014E0008B02C01A5241430A8B4201D34B02C01AED
:1014F0005241030A8B4201D30B02C01A5241CDD292
:10150000C3098B4201D3CB01C01A524183098B42DC
:1015100001D38B01C01A524143098B4201D34B01C5
:10152000C01A524103098B4201D30B01C01A524128
:10153000C3088B4201D3CB00C01A524183088B42AF
:1015400001D38B00C01A524143088B4201D34B0098
:10155000C01A5241411A00D201465241104670470A
:101560005DE0CA0F00D04942031000D3404253400F
:1015700000229C4603098B422DD3030A8B4212D3CF
:10158000FC22890112BA030A8B420CD38901921101
:101590008B4208D3890192118B4204D389013AD03E
:1015A000921100E08909C3098B4201D3CB01C01A13
:1015B000524183098B4201D38B01C01A5241430926
:1015C0008B4201D34B01C01A524103098B4201D314
:1015D0000B01C01A5241C3088B4201D3CB00C01A81
:1015E000524183088B4201D38B00C01A5241D9D299
:1015F00043088B4201D34B00C01A5241411A00D21A
:101600000146634652415B10104601D34042002B15
:1016100000D54942704763465B1000D3404201B594
:10162000002000F005F802BD0029F8D016E7704749
:101630007047C0460D0A52657475726E6564206607
:10164000726F6D206D61696E28292E202053797389
:1016500074656D2073746F702E000000496E7465A0
:10166000727275707420776974686F757420686120
:101670006E646C65722028495352292E20205379BC
:101680007374656D2073746F702E0000486172640E
:10169000204661756C7420696E7465727275707421
:1016A0002E202053797374656D2073746F702E0033
:0816B000E803000054010020D2
:04000005080000B936
:00000001FF
