:020000040800F2
:1000000000200020B9000008291500083D1500084F
:1000100000000000000000000000000000000000E0
:10002000000000000000000000000000291500088A
:100030000000000000000000291500082915000834
:100040002915000829150008291500082915000898
:100050002915000829150008291500082915000888
:1000600000000000291500082915000829150008BE
:1000700029150008291500080000000029150008AE
:10008000000000002915000800000000000000002A
:10009000291500080000000029150008291500088E
:1000A000291500082915000829150008910A0008DB
:1000B000411000082915000801F0B2F901F074F9A7
:1000C000E1235B02180000F03BFC62B6C04600F082
:1000D00077FA024B180000F0A3FDFEE7D04D0008B0
:1000E00080B582B000AF0200FB1D1A70FB1D1B78AB
:1000F0001900104801F07AFB030019000E4801F0C6
:1001000075FB03005A1E0D4B5A600C4B00229A607F
:100110000A4B05221A60C046084B1A6880235B020E
:100120001340F9D0054B00221A60C046BD4602B00C
:1001300080BDC04640420F000048E80110E000E0EA
:1001400080B584B000AF78600023FB6015E00B231E
:10015000FB1800221A7008E0FA20FFF7C1FF0B21FC
:100160007B181A787B1801321A700B23FB181B7846
:10017000032BF1D9FB680133FB60FA687B689A4274
:10018000E5D3C046C046BD4604B080BD80B500AFD3
:100190000A4B0B4A5A60094B00229A60074B052212
:1001A0001A60C046054B1A6880235B021340F9D0E1
:1001B000024B00221A60C046BD4680BD10E000E040
:1001C000FF7C000080B582B000AF786001E0FFF7EF
:1001D000DDFF7B685A1E7A60002BF8D1C046C0460E
:1001E000BD4602B080BD80B500AFA023DB05012273
:1001F00052429A601A4BDA6A194B01210A43DA62B9
:10020000A023DB051B68174A1A40A023DB058021C9
:10021000C9040A431A60A023DB055A69A023DB0541
:10022000802189010A435A61A023DB051A68A023B3
:10023000DB050D490A401A60A023DB05DA68A0231C
:10024000DB05802149020A43DA60A023DB05DA6876
:10025000A023DB0505490A40DA60C046BD4680BDE3
:1002600000100240FFFFFFF3FFFFFCFFFFFFFDFF59
:1002700080B500AF104BDA6A0F4B02210A43DA62F5
:100280000E4B1A680D4B0C210A431A600B4B1A686F
:100290000A4B0B490A401A60084BDA68074B802169
:1002A000C9040A43DA60054BDA68044B05490A4081
:1002B000DA60C046BD4680BD001002400004005018
:1002C000FFFFFFF3FFFFFFF780B500AF204BDA6AB7
:1002D0001F4B02210A43DA621E4B1A681D4BC021D4
:1002E0008A431A601B4B1A681A4B1B490A401A6052
:1002F000184B1A68174B19490A401A60154BDA68EF
:10030000144BC0218A43DA60124BDA68114B40214A
:100310000A43DA600F4BDA680E4B0F490A40DA6085
:100320000C4BDA680B4B8021C9000A43DA60094B99
:10033000DA68084B09490A40DA60064BDA68054B6F
:10034000802149010A43DA60C046BD4680BDC046EF
:100350000010024000040050FFF3FFFFFFCFFFFF3B
:1003600080B500AF244B5A6B234B802189000A4390
:100370005A63224B1A69214BC02109060A431A61AC
:100380001E4B1A681D4B01210A431A601B4B9A68C9
:100390001A4B01210A439A60184BDA6880231B022A
:1003A000134005D1C046154B1B6801221340FAD0FB
:1003B000124B9B680122134005D0104B9A680F4BDB
:1003C00002210A439A600D4B9A680C4B8021090662
:1003D0000A439A60C046094B1A6880231B011340E8
:1003E000F9D0064B1A68054B802109010A431A60AF
:1003F000C046BD4680BDC0460010024000240140FA
:1004000080B582B000AF7860164BDA68154B80215A
:1004100009020A43DA60134B7A689A62114B5A69EF
:10042000104B07210A435A617A6880239B029A4243
:1004300006D10D4B1A680C4B8021C9030A431A6080
:10044000084B9A68074B04210A439A60C046054B43
:100450001B6804221340FAD0024B1B6C1800BD46E7
:1004600002B080BD002401400827014090B58DB046
:1004700000AF78607A68184B1100180003F08EFA0C
:10048000A023DB055A69A023DB0514490A405A6101
:100490000A20FFF755FE7B68180000F099FE08243B
:1004A0003B192721180000F0CDFEA023DB055A6977
:1004B000A023DB05802189010A435A610A20FFF746
:1004C0003FFE3A19064B1100180003F067FAC046C8
:1004D000BD460DB090BDC046EC4C0008FFDFFFFFED
:1004E000F84C000880B500AFA023DB055A69A023B3
:1004F000DB0510490A405A610A20FFF721FE0E4B26
:10050000180000F065FE0A20FFF71AFEA023DB05A5
:100510005A69A023DB05802189010A435A6101E061
:1005200000F083FE00F0D4FE031EF9DCC046C04696
:10053000BD4680BDFFDFFFFF084D000880B584B0D9
:1005400000AF7860786802F0F3FD1A4A1A4B02F0A7
:1005500027FA02000B0010001900164A164B01F092
:10056000BDFC02000B00100019000022134B01F02B
:10057000ABFF02000B001000190002F0A3FD030006
:10058000FB60FB68642B02DD6423FB6005E0FB6815
:10059000643302DA64235B42FB60FB68043304DBF0
:1005A000FB68042B01DC0123FB60FB681800BD46DF
:1005B00004B080BD9A9999999999F93F00005940E2
:1005C00090B5A7B004AF00238422BA181360FFF7D8
:1005D0000AFE96239B01180000F08CFCFFF748FEF2
:1005E000FFF772FEFFF7BCFEFA239B001800FFF72F
:1005F000A7FD7E4B180003F05DFAFFF773FF7C4BFD
:100600001800FFF733FF7B4B1800FFF72FFF7A4BE3
:100610001800FFF72BFF794B1800FFF727FF784BE7
:100620001800FFF723FF774B1800FFF71FFF764BEB
:100630001800FFF71BFF754B1800FFF717FF744BEF
:100640001800FFF713FF00237B6700233B6700239D
:10065000FB660023BB6600237B6600233B6600230A
:1006600080243A1913600023FB670023BB678023B3
:100670005B001800FFF7C4FE0300FB6580239B00AE
:100680001800FFF7BDFE0300BB65F86D01F0D8FB55
:10069000031C6049181C01F0ADFA031C8B21C9052D
:1006A000181C01F08FF9031C7B65B86D01F0C8FBC5
:1006B000031C5849181C01F09DFA031C8B21C90525
:1006C000181C01F07FF9031C3B657B6D181CFFF7BC
:1006D00035FF03007B663B6D181CFFF72FFF0300FF
:1006E0003B664D4B1B690822134002D101233A1986
:1006F0001360494B1B692022134001D10123FB6782
:10070000454B1B694022134001D10123BB673C6E5E
:100710007A6E42493800BB6F0293FB6F01938023CE
:10072000FB181B680093230003F0FCF9212000F064
:100730006DFD0520FFF704FD3B00180000F048FDAB
:100740000520FFF7FDFC402000F060FD002384221F
:10075000BA18136000F0BCFD0300052B0DDC8422E9
:10076000BB181B680133B9180B60BB181B68C82B7A
:1007700005DC6420FFF7B4FCECE7C04600E0C046AF
:1007800000F0A6FD0300052B16DD3B004F211800ED
:1007900000F058FD3B001B78002B08D03A00204B9E
:1007A0001100180003F0FAF813E000F03EFD00F02D
:1007B0008FFD031EF9DC0CE03A001A4B1100180003
:1007C00003F0ECF801E000F030FD00F081FD031EC5
:1007D000F9DC3220FFF7B4FC134B1B689B68180050
:1007E00002F062FE9620FFF7EDFC2CE7184D0008A2
:1007F000304D00083C4D0008484D0008544D00089D
:10080000604D00086C4D0008784D0008844D0008CC
:10081000944D00083333534000040050A04D0008AD
:10082000B04D0008C04D00080400002090B585B010
:1008300000AF78603960184B1B68002B02D1012390
:100840005B4224E00023FB600AE0FB685A1CFA606C
:100850003A68D418114B180000F0ADF9030023706A
:100860007B68013B1A00FB68934205D20B4B1800D2
:1008700000F0CCF9031EE8D1FB68002B06D03A68E3
:10088000FB68D31800221A70FB6800E000231800F0
:10089000BD4605B090BDC0460001002068000020A4
:1008A00080B584B000AF78603960224B1B68002BA4
:1008B00002D101235B4238E07B683F2B0BDCC04652
:1008C0001D4B180000F0A2F903004022D21A7B68E9
:1008D0009A42F5D302E002235B4226E00023FB604C
:1008E0000BE03A68FB68D3181A78134B1100180014
:1008F00000F030F9FB680133FB607B68FA689A42CC
:10090000EFD30E4B1B68082213400DD10B4B1A6816
:100910000A4B08210A431A60074B180000F04BF9F4
:1009200003001A00054B9A6200231800BD4604B06C
:1009300080BDC04600010020B40000200038014006
:1009400080B584B000AF786072B6C046454B0022D7
:100950009A64444B9A6C434B5A64424B5A6C414BD9
:100960001A64414B00229A643F4B9A6C3E4B5A6486
:100970003D4B5A6C3C4B1A643C4B01221A603C4B79
:1009800000221A603B4BDA6A3A4B01210A43DA62D1
:10099000394BFB607968F86800F028FF0300FB60C2
:1009A000A023DB059A68A023DB058021C9020A4346
:1009B0009A60A023DB055A68A023DB052F490A4073
:1009C0005A60A023DB051B682D4A1A40A023DB05D3
:1009D000802109030A431A60A023DB055A6AA02379
:1009E000DB0540210A435A62A023DB051B68254A28
:1009F0001A40A023DB05802189030A431A60A02343
:100A0000DB055A6AA023DB058021C9000A435A622C
:100A1000184B5A6B174B8021C9010A435A631A4B72
:100A20001A68194B6C210A431A60174B00225A604E
:100A3000154B00229A60144BFA68DA60124B1A6860
:100A4000114B01210A431A60104B1A680F4B802189
:100A500009050A431A6062B6C046C046BD4604B0E6
:100A600080BDC04668000020B400002000010020C6
:100A700004010020001002400048E801FFFDFFFFD4
:100A8000FFFFF3FFFFFFCFFF0038014000E100E070
:100A900080B500AF084BDB698022134001D000F025
:100AA00025F8054BDB692022134001D000F006F841
:100AB000C046BD4680BDC0460038014080B500AF8D
:100AC000074B5B6ADAB2074B1100180000F042F8DE
:100AD000031E02D0044B01221A60C046BD4680BDF1
:100AE00000380140680000200401002080B500AFFC
:100AF000164B180000F08AF8031E08D0134B18009C
:100B000000F059F803001A00114B9A621BE0104BD9
:100B10001A680F4B08218A431A600D4BDB6940228B
:100B2000134005D00A4B1A6A094B40210A431A6246
:100B3000074BDB698022134005D0054B9A69044BB3
:100B400010210A439A61C046BD4680BDB400002012
:100B50000038014080B582B000AF78600A00FB1C0D
:100B60001A707B681A6C7B685B6C9A4205D17B6853
:100B70009B6C002B01D0012319E072B6C0467B6844
:100B80001B6C591C7A6811647A68F91C0978D15475
:100B90007B689B6C5A1C7B689A647B681B6C402B3F
:100BA00002D17B6800221A6462B6C0460023180096
:100BB000BD4602B080BD80B584B000AF78607B6870
:100BC0009B6C002B01D100231CE072B6C0467B68F1
:100BD0005B6C591C7A6851640F22BA187968CB5C37
:100BE00013707B685B6C402B02D17B6800225A64D7
:100BF0007B689B6C5A1E7B689A6462B6C0460F2362
:100C0000FB181B781800BD4604B080BD80B582B0CB
:100C100000AF78607B689B6C1800BD4602B080BD59
:100C200080B582B000AF78600B4B1B68002B09D1F8
:100C300001235B420BE07B685A1C7A60190001209B
:100C4000FFF72EFE7B681B78002BF4D100231800E1
:100C5000BD4602B080BDC0460001002080B582B014
:100C600000AF0200FB1D1A70FB1D19000120FFF7E9
:100C700017FEC046BD4602B080BD80B500AF044B34
:100C80001800FFF798FF03001800BD4680BDC0465E
:100C900068000020B0B584B000AF786039601E4BAA
:100CA0001B68002B02D101235B4231E00023FB6073
:100CB0000B23FB1800221A7017E0C046174B1800D0
:100CC000FFF7A4FF031EF9D00B257C19134B180066
:100CD000FFF771FF03002370FB685A1CFA601A00CB
:100CE0007B689B187A1912781A703B68013BFA6886
:100CF0009A4204DA0B23FB181B780D2BDDD1FB681D
:100D0000002B04DDFB687A68D31800221A70FB6898
:100D10001800BD4604B0B0BD0001002068000020EE
:100D200090B583B000AFFC1DFFF7A7FF0300237051
:100D3000FB1D1B781800FFF791FFFB1D1B781800A7
:100D4000BD4603B090BDB0B584B000AF78603960E7
:100D5000214B1B68002B02D101235B4237E00023AB
:100D6000FB600B23FB1800221A701DE0C0461B4BD2
:100D70001800FFF74BFF031EF9D00B257C19174B0A
:100D80001800FFF718FF030023702C003B191B7895
:100D90001800FFF763FFFB685A1CFA601A007B68B3
:100DA0009B183A1912781A703B68013BFA689A420C
:100DB00004DA0B23FB181B780D2BD7D1FB68002B13
:100DC00004DDFB687A68D31800221A70FB681800EB
:100DD000BD4604B0B0BDC046000100206800002040
:100DE00090B585B000AF78603960184B1B68002B58
:100DF00002D101235B4224E00023FB600AE0FB6890
:100E00005A1CFA603A68D418114B180000F0ABF97C
:100E1000030023707B68013B1A00FB68934205D2F4
:100E20000B4B180000F0CAF9031EE8D1FB68002B39
:100E300006D03A68FB68D31800221A70FB6800E0FD
:100E400000231800BD4605B090BDC046A401002097
:100E50000C01002080B584B000AF78603960224B6F
:100E60001B68002B02D101235B4238E07B683F2BDB
:100E70000BDCC0461D4B180000F0A0F90300402217
:100E8000D21A7B689A42F5D302E002235B4226E045
:100E90000023FB600BE03A68FB68D3181A78134B09
:100EA0001100180000F02EF9FB680133FB607B682D
:100EB000FA689A42EFD30E4B1B68082213400DD1FB
:100EC0000B4B1A680A4B08210A431A60074B18009B
:100ED00000F049F903001A00054B9A62002318003C
:100EE000BD4604B080BDC046A401002058010020CA
:100EF0000044004080B584B000AF786072B6C04650
:100F0000454B00229A64444B9A6C434B5A64424BC3
:100F10005A6C414B1A64414B00229A643F4B9A6CC5
:100F20003E4B5A643D4B5A6C3C4B1A643C4B01227D
:100F30001A603C4B00221A603B4BDA6A3A4B0121A3
:100F40000A43DA62394BFB607968F86800F04EFCBE
:100F50000300FB60A023DB059A68A023DB0580214A
:100F600049050A439A60A023DB055A68A023DB05E4
:100F70002F490A405A60A023DB051B682D4A1A40FE
:100F8000A023DB05802189050A431A60A023DB0525
:100F90005A6AA023DB058021C9040A435A62A023B0
:100FA000DB051B689B009A08A023DB05802109064E
:100FB0000A431A60A023DB055A6AA023DB058021BF
:100FC000C9050A435A62184B9A6B174B8021890254
:100FD0000A439A63184B1A68174B6C210A431A602C
:100FE000154B00225A60144B00229A60124BFA688B
:100FF000DA60114B1A68104B01210A431A600F4B3B
:101000001A680E4B802149050A431A6062B6C04631
:10101000C046BD4604B080BD0C0100205801002030
:10102000A4010020A8010020001002400048E801AF
:10103000FFBFFFFFFFFFFFCF0044004000E100E0E3
:1010400080B500AF084BDB698022134001D000F06F
:1010500025F8054BDB692022134001D000F006F88B
:10106000C046BD4680BDC0460044004080B500AFCC
:10107000074B5B6ADAB2074B1100180000F042F828
:10108000031E02D0044B01221A60C046BD4680BD3B
:10109000004400400C010020A801002080B500AFF2
:1010A000164B180000F08AF8031E08D0134B1800E6
:1010B00000F059F803001A00114B9A621BE0104B24
:1010C0001A680F4B08218A431A600D4BDB694022D6
:1010D000134005D00A4B1A6A094B40210A431A6291
:1010E000074BDB698022134005D0054B9A69044BFE
:1010F00010210A439A61C046BD4680BD58010020B8
:101100000044004080B582B000AF78600A00FB1C4C
:101110001A707B681A6C7B685B6C9A4205D17B689D
:101120009B6C002B01D0012319E072B6C0467B688E
:101130001B6C591C7A6811647A68F91C0978D154BF
:101140007B689B6C5A1C7B689A647B681B6C402B89
:1011500002D17B6800221A6462B6C04600231800E0
:10116000BD4602B080BD80B584B000AF78607B68BA
:101170009B6C002B01D100231CE072B6C0467B683B
:101180005B6C591C7A6851640F22BA187968CB5C81
:1011900013707B685B6C402B02D17B6800225A6421
:1011A0007B689B6C5A1E7B689A6462B6C0460F23AC
:1011B000FB181B781800BD4604B080BD80B582B016
:1011C00000AF78607B689B6C1800BD4602B080BDA4
:1011D00080B582B000AF78600B4B1B68002B09D143
:1011E00001235B420BE07B685A1C7A6019000120E6
:1011F000FFF730FE7B681B78002BF4D1002318002A
:10120000BD4602B080BDC046A401002080B582B0BA
:1012100000AF0200FB1D1A70FB1D19000120FFF733
:1012200019FEC046BD4602B080BD80B500AF044B7C
:101230001800FFF798FF03001800BD4680BDC046A8
:101240000C010020B0B584B000AF786039601E4B4F
:101250001B68002B02D101235B4231E00023FB60BD
:101260000B23FB1800221A7017E0C046174B18001A
:10127000FFF7A4FF031EF9D00B257C19134B1800B0
:10128000FFF771FF03002370FB685A1CFA601A0015
:101290007B689B187A1912781A703B68013BFA68D0
:1012A0009A4204DA0B23FB181B780A2BDDD1FB686A
:1012B000002B04DDFB687A68D31800221A70FB68E3
:1012C0001800BD4604B0B0BDA40100200C010020F0
:1012D00080B500AF034B1800FFF770FF0300180044
:1012E000BD4680BD0C01002090B583B000AFFC1D51
:1012F000FFF79BFF03002370FB1D1B781800FFF70F
:1013000085FFFB1D1B781800BD4603B090BDB0B52E
:1013100084B000AF78603960214B1B68002B02D18C
:1013200001235B4237E00023FB600B23FB18002204
:101330001A701DE0C0461B4B1800FFF73FFF031E4D
:10134000F9D00B257C19174B1800FFF70CFF030091
:1013500023702C003B191B781800FFF757FFFB6820
:101360005A1CFA601A007B689B183A1912781A7096
:101370003B68013BFA689A4204DA0B23FB181B789E
:101380000D2BD7D1FB68002B04DDFB687A68D318DE
:1013900000221A70FB681800BD4604B0B0BDC046FC
:1013A000A40100200C01002080B582B000AF164BD4
:1013B0007B60164B3B6007E07A68131D7B603B68DF
:1013C000191D396012681A603A68114B9A42F3D3BA
:1013D00004E03B681A1D3A6000221A603A680D4B1F
:1013E0009A42F6D30C4B3B6004E03B681A1D3A600E
:1013F0001B6898473A68094B9A42F6D3C046C046E4
:10140000BD4602B080BDC046245000080000002048
:1014100068000020D001002024500008245000085B
:1014200080B500AF3B4B1A683A4B01210A431A6062
:10143000C046384B1B6804221340FAD0354B0122BA
:10144000DA60C046334BDB680C221340042BF9D121
:10145000314B1A68304B02210A431A602E4B1A682E
:101460002D4B01210A431A602A4B9A6B294B80218C
:1014700049050A439A63294B802212011A60C0462B
:10148000264B5B6810221340FAD1224BDA68214BBD
:1014900023490A40DA601F4BDA681E4B8821C903D2
:1014A0000A43DA601B4A1B4BD268DA60194A194BAF
:1014B000D268DA60174A174BD268DA60154B1A689F
:1014C000144B18490A401A60124B1A68114B8021BC
:1014D00049040A431A60C0460E4B1A6880239B04D5
:1014E0001340F9D00B4BDA680A4B03218A43DA60C8
:1014F000084BDA68074B03210A43DA60C046054B04
:10150000DB680C2213400C2BF9D1C046C046BD4607
:1015100080BDC04600100240002002400070004024
:10152000FFFF02FFFFFFFFFE80B500AF024B180078
:10153000FFF776FBFEE7C046F84D000880B500AF28
:10154000024B1800FFF76CFBFEE7C046284E000870
:1015500080B582B000AF7860FEE780B582B000AFA2
:10156000786001235B421800BD4602B080BD80B5A3
:1015700084B000AFF860B9607A60044B0C221A6046
:1015800001235B421800BD4604B080BDB8010020B5
:1015900080B500AF034B0B221A6001235B42180099
:1015A000BD4680BDB801002080B582B000AF786034
:1015B00039603B68802292015A6000231800BD46C2
:1015C00002B080BD80B500AF01231800BD4680BDCC
:1015D00080B582B000AF78603960044B16221A6083
:1015E00001235B421800BD4602B080BDB801002057
:1015F00080B582B000AF78603960044B1F221A605A
:1016000001235B421800BD4602B080BDB801002036
:1016100080B584B000AFF860B9607A60002318002C
:10162000BD4604B080BD80B582B000AF786039603F
:101630003B68802292015A6000231800BD4602B028
:1016400080BD80B582B000AF786001235B42180096
:10165000BD4602B080BD80B582B000AF7860044B5B
:1016600002221A6001235B421800BD4602B080BD11
:10167000B801002080B582B000AF7860044B0A2228
:101680001A6001235B421800BD4602B080BDC0460F
:10169000B801002080B582B000AF78607B68022B73
:1016A00001D8012303E0044B09221A60002318002B
:1016B000BD4602B080BDC046B801002080B586B0EE
:1016C00000AF7860124B7B61124B3B61124B1B6881
:1016D000002B02D1104B7A691A600F4B1B68FB601C
:1016E0000D4B1A687B68D3183A699A4205D20B4BA6
:1016F0000C221A6001235B4206E0074B1A687B68E4
:10170000D218054B1A60FB681800BD4606B080BDB4
:10171000D001002000100020B4010020B8010020FA
:1017200080B588B000AFF860B9607A600023BB6113
:10173000FB68002B22D10023FB611AE0FFF79DFA22
:1017400003001A0017217B181A70BB685A1CBA6074
:101750007A181278D2B21A70BB690133BB617B1858
:101760001B78DBB20A2B01D1BB690EE0FB690133A8
:10177000FB61FA697B689A42E0DB05E0054B0922D0
:101780001A6001235B4200E0BB691800BD4608B047
:1017900080BDC046B801002080B586B000AFF860BB
:1017A000B9607A60FB68013B012B11D800237B6193
:1017B00009E0BB685A1CBA601B781800FFF74EFAA4
:1017C0007B6901337B617A697B689A42F1DB05E0D2
:1017D000054B09221A6001235B4200E07B68180078
:1017E000BD4606B080BDC046B801002003460B438D
:1017F0007FD4002243088B4274D303098B425FD30A
:10180000030A8B4244D3030B8B4228D3030C8B4235
:101810000DD3FF22090212BA030C8B4202D312121B
:10182000090265D0030B8B4219D300E0090AC30BF0
:101830008B4201D3CB03C01A5241830B8B4201D39D
:101840008B03C01A5241430B8B4201D34B03C01A86
:101850005241030B8B4201D30B03C01A5241C30AFE
:101860008B4201D3CB02C01A5241830A8B4201D36F
:101870008B02C01A5241430A8B4201D34B02C01A59
:101880005241030A8B4201D30B02C01A5241CDD2FE
:10189000C3098B4201D3CB01C01A524183098B4249
:1018A00001D38B01C01A524143098B4201D34B0132
:1018B000C01A524103098B4201D30B01C01A524195
:1018C000C3088B4201D3CB00C01A524183088B421C
:1018D00001D38B00C01A524143088B4201D34B0005
:1018E000C01A5241411A00D2014652411046704777
:1018F0005DE0CA0F00D04942031000D3404253407C
:1019000000229C4603098B422DD3030A8B4212D33B
:10191000FC22890112BA030A8B420CD3890192116D
:101920008B4208D3890192118B4204D389013AD0AA
:10193000921100E08909C3098B4201D3CB01C01A7F
:10194000524183098B4201D38B01C01A5241430992
:101950008B4201D34B01C01A524103098B4201D380
:101960000B01C01A5241C3088B4201D3CB00C01AED
:10197000524183088B4201D38B00C01A5241D9D205
:1019800043088B4201D34B00C01A5241411A00D286
:101990000146634652415B10104601D34042002B82
:1019A00000D54942704763465B1000D3404201B501
:1019B000002000F005F802BD0029F8D016E77047B6
:1019C0007047C046F0B54F464646D6464502C0B5BC
:1019D00047000C1C6D0A3F0EC60F002F00D170E0AF
:1019E000FF2F00D175E0EB008025ED041D4300239F
:1019F00099469A467F3F6002430A984663001B0E51
:101A0000E40F002B4ED0FF2B46D04246D000802260
:101A1000D2040243904600227F3B3100FF1A4B461E
:101A20006140C9B213430F2B00D9B5E06E489B004B
:101A3000C3589F4600239846260045469246534683
:101A4000022B00D189E0032B00D19EE0012B18D09E
:101A50003B007F33002B69DD6A0704D00F222A4048
:101A6000042A00D004352A0103D5604B1D403B00F9
:101A70008033FE2B00DD70E0AD016D0AD8B202E0CC
:101A80000E0000200025C0052843F6073043E0BCC7
:101A9000BA46B146A846F0BD4346002B3FD10222CC
:101AA000FF3F03E04346002B2DD1012231004B467E
:101AB0006140C9B213430F2B34D84D489B00C35823
:101AC0009F46002D13D104239946033B00279A46D5
:101AD00091E7002D05D108239946063BFF279A463A
:101AE00089E70C239946093BFF279A4683E728009C
:101AF00001F0F0FB7627431F9D4000237F4299466B
:101B00009A463F1A77E7404601F0E4FB4246431FFE
:101B10009A4076235B4290461B1A00227DE7FF2302
:101B200003227AE70E00FF200025ACE70120C01A4F
:101B30001B28A6DC9E372A00BD40C2406B1E9D417B
:101B400015436B0704D00F232B40042B00D0043522
:101B50006B0144D50120002595E7FF20002592E781
:101B600080250026FF20ED038DE700239846802086
:101B7000C003054209D04346034206D1454605430A
:101B80006D022600FF206D0A7DE78020C00305431B
:101B90006D02FF206D0A76E742466B0150018342D9
:101BA00019D21B220025013F01261C006D005B009D
:101BB000002C01DB984201D81B1A3543013A002A58
:101BC000F3D15A1E93411D433B007F330E00002B7F
:101BD00000DD41E7AAE71A2201251B1AE4E7AD015F
:101BE00000206D0A4FE7C0464C4E0008FFFFFFF78C
:101BF0008C4E0008F0B54F464646D6464402450096
:101C0000C0B5640A0F1C2D0EC60F002D00D18DE04B
:101C1000FF2D00D192E00023802099469A46E400EF
:101C2000C00404437F3D7802430A98467B001B0EA4
:101C3000FF0F002B00D170E0FF2B00D186E0424661
:101C4000D00080227F3BED180023D204024390464F
:101C50009C4631004B467940681C0F2B1CD8764AB5
:101C60009B00D3589F4639004446E2465346022B18
:101C70000FD0032B00D1D7E0012B37D10020002457
:101C8000C0052043C9070843E0BCBA46B146A84690
:101C9000F0BDFF200024F3E7260C2404220C444668
:101CA0002404240C434627001B0C574374435A4317
:101CB0005E4312193B0C9B189C4203D980225202AE
:101CC000944666443F041A043F0CD2199401671EDF
:101CD000BC411B0C920E9B1914439B011C431B011E
:101CE00000D49BE0012362081C40144302007F32B1
:101CF000002A64DD630704D00F232340042B00D0A7
:101D00000434230103D502004C4B80321C40FE2AD0
:101D1000BFDCA401640AD0B2B2E74346002B3DD138
:101D20004A4601331A4391469C4692E7002C29D13A
:101D300004239946033B00259A4674E7002C1BD1E7
:101D400008239946063BFF259A466CE74346FF3534
:101D5000002B0BD102234A461A4391469C4678E752
:101D600053463100022B00D083E792E703234A4613
:101D70001A4391469C466CE70C239946093BFF2584
:101D80009A4650E7200001F0A5FA7625431F9C40B3
:101D900000236D4299469A462D1A44E7404601F0C9
:101DA00099FA4246431F9A4000232D1A90469C46BA
:101DB000763D4EE780240021FF20E40360E7012305
:101DC0009B1A1B2B00DD59E722009E30DA4084402D
:101DD0001300621E94411C43630704D00F23234069
:101DE000042B00D0043463011AD50120002447E7F6
:101DF0008020C003044209D04346034206D1444632
:101E0000044364023900FF20640A39E78020C003DC
:101E1000044364023100FF20640A31E7280065E7CB
:101E2000A4010020640A2BE78020C003044364025D
:101E3000FF20640A24E7C046CC4E0008FFFFFFF7EE
:101E4000F8B5002813D0C317C6185E40C40F300081
:101E500001F040FA9E2305001B1A962B0FDC082880
:101E600001DD083DAE407602760AD8B202E00024D9
:101E700000200026C0053043E4072043F8BD992B1D
:101E80000CDD05223100121AD1400A000100300099
:101E90001B318840411E884102431600052D12DC8B
:101EA00031000D4F3940720709D00F20304004280F
:101EB00005D004314A0102D59F2339405B1B8901BB
:101EC0004E0AD8B2D6E76A1F96403100024F394019
:101ED0007207F4D0E9E7C046FFFFFFFBF0B55746B5
:101EE0004E464546DE46E0B5814605000C034800F7
:101EF00092461F0085B0240B400DCE0F002800D164
:101F000056E1D44B984200D172E16B0FE4001C43C0
:101F100080231B0423439846CF4BED009B460023B0
:101F20009946834400933C037B005046240B5B0D91
:101F3000FF0F002B00D11FE1C64A934200D162E19E
:101F4000C549420F8C46E40059461443802263443D
:101F50001204CB1A14439B46C200002033007B407E
:101F60009A464B460F2B27D8BC499B00CB589F461F
:101F7000B246009B022B16D0032B00D18EE2012B20
:101F800000D0D9E000230024002552461B0523433E
:101F9000D20713432800190005B0F0BCBB46B24677
:101FA000A946A046F0BD00240025AA4BEDE7BA469D
:101FB000A04615000090DCE7444500D2C7E100D1FF
:101FC000C2E101235B429C462E0040460025E344CB
:101FD0002302140E1C431B0C994623041F0C1202EF
:101FE00049460092019701F071F902007A430B040F
:101FF000310C804619438A4207D901235B429C4633
:102000000919E0448C4200D807E2881A494601F0D9
:102010005DF909048C4631046646019A090C424375
:10202000030031438A4204D90919013B8C4200D88C
:10203000EDE1881A424612041A4390464146009B3D
:102040000E041B0C1F000293009B360C1B04190C82
:102050000B007343120C7E43039151437A431F0CD0
:10206000BC4676186644B14203D9802149028C46A9
:102070006244310C8A1831041E04360C8E199042C9
:1020800002D312D1B54210D24346591E009B9C4642
:1020900065441F009D429B415B421B19C01884424E
:1020A00000D2A0E100D19BE18846AE1BB542AD4114
:1020B000801A6D42401B844200D1D5E1494601F0AF
:1020C00005F9019A0B044243310C050019438A4279
:1020D00000D96CE1881A494601F0F8F8019A3604F3
:1020E00042430904360C03000E43B24200D953E1C7
:1020F0000398B61A02002D041D43029F2B041B0CEB
:102100005A437B439C46290C4843130C8444634444
:102110007943984203D98020400284466144180CD8
:1021200012041B04120C41189B188E4200D2FFE0CF
:1021300000D1FAE001231D43494A5A44002A00DC39
:10214000AAE06B0700D03DE1ED084346DB0106D570
:102150004246444B1A4090468022D2005A44424B99
:102160009A4200DD1FE743465B071D434346520585
:102170005C02240B530D08E75246224300D17BE05A
:10218000002C00D1FAE0200001F0A4F802000B3A84
:102190001D2301009B1A52460839DA408C40144333
:1021A00052468A40314B58449B4683440020D5E632
:1021B0004B462343984644D0002C00D1CEE020006B
:1021C00001F088F8010002000B391D235B1A494613
:1021D0001000D940083884400B004D4623439846F0
:1021E00085402348831A9B460023994600939AE62C
:1021F0004B46234398461DD108239946063B0025AC
:10220000834600938FE65246224309D10223494672
:102210001943184B89469C4600240220E3449DE65E
:1022200003234A461A43134B91469C4652460320C9
:10223000E34493E60C239946093BA046834600936A
:1022400071E60423994600239B4601330025009341
:1022500069E6C046FF07000001FCFFFF0C4F0008C5
:10226000FF030000FFFFFFFEFE070000F303000076
:102270000DFCFFFF01F8FFFF494601231943894682
:10228000002401206AE6002380249A4600258A4B18
:1022900024037AE601256D4201239B1A382B00DDC9
:1022A00070E61F2B00DCBFE01F2149428A1A41461D
:1022B000D1400A00202B04D04146804B5B4499401A
:1022C0000D436B1E9D4107232A431D00002415402A
:1022D000134200D1D4E00F2100231140042900D182
:1022E000CBE0111D9142924152429B180A00190203
:1022F00000D4C2E001230024002546E680234146A5
:102300001B03194208D01C4206D11C432403BA46C1
:102310001500694B240B38E68024434624031C43F4
:102320002403B246644B240B2FE6002B00D103E7B5
:10233000A619681EA64200D28DE08E4200D2A3E00C
:1023400000D1B3E00500F5E6AA4200D939E64346DC
:10235000DE0758086B081E43ED0739E6484600F0D3
:10236000B9FF01000200153120321C2900DC2CE7E6
:102370004B46083883400025984632E700F0AAFF14
:1023800003001A00153220301C2A00DC00E75446F6
:10239000083B00229C4005E73619013BB44200D9B6
:1023A000A6E6B24200D8A3E6831E3619A0E60919B4
:1023B000013D8C4200D98DE68A4200D88AE6851E0E
:1023C000091987E60F232B40042B00D1BCE6052317
:1023D0005B42AB429B4104355B42ED089844B4E656
:1023E000AF4200D960E6824204D800D05CE6AE423B
:1023F00000D859E602235B429C46009BE0449C4681
:1024000065449D429B415B421B19C0184DE68A42C0
:1024100000D80EE6831E09190BE68A4200D8F4E5BF
:10242000831E98460919F0E52549280059448D4036
:1024300042468A40691E8D414146D840D9400243F8
:102440002A430B00510700D151E70F211140042905
:1024500000D046E74BE705008E4200D06AE6009ABE
:10246000934200D066E667E6164A5A44002A00DC2A
:1024700010E701230025984467E65D075B021C0B0B
:10248000D2080023154380E50098023D42008242B5
:10249000BF417F423C1936190092DDE78024434654
:1024A00024031C432403044B240B6EE5009A9A4238
:1024B000EAD30500D3E7C046FF0700003E04000052
:1024C0001E040000FF030000F0B557464E46454687
:1024D000DE46E0B598460C034B000600924687B0F6
:1024E000240B5B0DCF0F002B00D15CE1D94A934246
:1024F00000D175E1420FE40014438022120414431A
:10250000D54AC500944663440093002399469B46F0
:10251000434642461E03D20F5B0050469046360BA0
:102520005B0D00D120E1CB4A934200D162E1CA4960
:10253000420F8C4600996344F6008C461643802275
:102540009C44120463461643C20000200093009985
:10255000434601318C4649467B4001930F2926D8DA
:10256000BE4B890059588F464346019334001500ED
:1025700083465B46022B16D0032B00D103E2012BCE
:1025800000D0CDE0002200240025019B120522434B
:10259000DB071A432800110007B0F0BCBB46B24667
:1025A000A946A046F0BD00240025AA4AEDE7280C64
:1025B0002D042D0C2B00110C1204120C53439846C1
:1025C00013002F00434399464F434F44BB464746B1
:1025D0000B003F0CBA464343DA440293D14504D979
:1025E00080277F02B9464B44029353461B0C9B46FF
:1025F00053461F0443461B041B0C98463B004344B0
:102600000493330C3604360C984633004343994602
:10261000434643432F009A46434677435D43380C75
:102620004D444519A94503D980235B029946CA4404
:102630003F04280C3F0C2D04ED19270C2404240C16
:102640000300200050437A4391463A0053440593D7
:10265000030C9A464A43614349445144AB4489457B
:1026600003D980235B0299464A4400040B0C000CFA
:102670000904091820009946434670435C437E4391
:102680005F43030C9846A41944444A440397A64266
:1026900004D980235B029846474403972304029E93
:1026A0009A46059B5E449846AE42AD4176188E42EE
:1026B00089410004000C504440446D424719B8461B
:1026C000934649428946C344D94498428041A8452B
:1026D000AD4193459241894589416D42404228432D
:1026E000240C524249420A43039B00198018C71820
:1026F0004B46DC0D049B75021D436A1E95414B46FB
:10270000F60D7F0235435A023C431543FB0100D4CA
:102710001CE101216A080D401543E20715436408D6
:102720004F496144002900DCB0E06B0709D00F225B
:102730002A40042A05D02A1DAA42AD416D426419DF
:102740001500E30104D58021464AC90014406144C4
:10275000454A914200DD26E76207ED08640249051B
:102760001543240B4A0D10E75246324300D17FE057
:10277000002E00D1DCE0300000F0ACFD02000B3A8E
:102780001D2301009B1A52460839DA408E40164339
:1027900052468A40009B3549181A03008C46634410
:1027A00000200093D3E6250005434AD0002C00D139
:1027B000B0E0200000F08EFD010002000B391D2367
:1027C00010005B1A3100350008388440D94085403C
:1027D0000C432648831A0093002399469B4697E6AC
:1027E0000500254326D108220093022300249146A8
:1027F0009B468DE65246009B324310D11549002678
:102800008C466344494600930223194389460220BB
:102810009DE65B460197022B00D0ADE6C3E60D4A6C
:102820000320944663444A46009303231A43914687
:1028300052468CE60C2200930323050091469B46EA
:1028400066E60423994600230093013300249B4647
:102850005EE6C046FF07000001FCFFFF4C4F00088A
:10286000FF030000FFFFFFFEFE0700000DFCFFFF5F
:1028700049460123194389460026012067E60023C3
:1028800080240025434A019324037EE60120401A58
:10289000382800DD76E61F285BDD1F222300524228
:1028A000511ACB401900202803D03B4A624494407F
:1028B00025436A1E95412A000A4307210D00002482
:1028C000154011425BD00F2100241140042953D040
:1028D000111D914292415242A4180A0023024BD585
:1028E00001220024002550E680231B031C4209D04E
:1028F0001E4207D133431C0343461500240B254ACF
:10290000019342E68022120314432403214A240B3C
:1029100001973AE600F0DEFC01000200153120329A
:102920001C2900DC4BE7340008380025844050E7C0
:1029300000F0D0FC03001A00153220301C2A00DC05
:102940001EE75646083B00229E4023E7009B9C461C
:10295000E6E61249220061442E008D408A40C640BE
:10296000691E8D4132432A43C4405307B6D00F211C
:1029700011400429ACD1B1E765076402240BD208E9
:102980001543002201E68022120314432403014A66
:10299000240BFAE5FF0700003E0400001E040000BF
:1029A000F8B557464E464546DE46E0B51E001700D0
:1029B0004A000B03520D5B0A9046420F1A43CD0F9B
:1029C000CD4C3103C300944670007A0F490AFF00D2
:1029D0009A46B946400DF60F1143A04200D1B1E02E
:1029E00001225640B346B54200D188E04246121A51
:1029F000002A00DCAEE0002800D1C1E0BE488045DE
:102A000000D151E1802000040143382A00DD7BE140
:102A10001F2A00DDEEE120203E00801A0C00D64087
:102A2000D140874062468440521A781E87419446BE
:102A300034432743DC1BA3429B4162465B42D31ACB
:102A400099464B461B0200D418E14B465802430AF4
:102A500099464B46002B00D137E1484600F03AFC3E
:102A6000010008392023220048465B1ADA408840DA
:102A70008C4043461043884500DD36E1C91A4B1CA3
:102A80001F2B00DDEAE020222600D21A010094402C
:102A9000DE40D84000239140621E94418146984612
:102AA00031430C43630709D00F232340042B05D087
:102AB000231DA342A4416442A1441C004B461B02B7
:102AC00000D4DEE041468C4B0131994200D1E7E071
:102AD0004B468A48E4080340180049055B0740025A
:102AE00023434A0D040B1205ED0722432A43180025
:102AF0001100F0BCBB46B246A946A046F8BD42460E
:102B0000121A002A52DD002800D19CE0A04500D115
:102B1000CAE0802000040143382A00DD49E11F2A71
:102B200000DC97E110000E002038C640202A04D0B7
:102B30004020821A91400F43B9464C46621E944190
:102B400034433AE10A003A4328D0B346B5422BD089
:102B50006B4A4244002A5DD042464446821A002C09
:102B600000D0F5E065461D4300D19CE1551E012AC9
:102B700000D1FBE1604CA24200D1BDE12A00F0E0AF
:102B80000800384300D1C3E0501E012A00D1A8E15B
:102B9000594CA24200D187E0020036E7012256409C
:102BA000B346B54200D021E7554A4244002A00D13D
:102BB000B5E042464446821A002C00D138E14E4E20
:102BC000B04200D1DEE18026644636043443A44698
:102BD000382A00DD96E11F2A00DD24E22026B41AFF
:102BE000A24664465646B440A1461C004E46D44018
:102BF000264334005646B3405E1EB3411C43634631
:102C0000D340C918E419BC42BF417F42B94680464F
:102C10008944D8E040463B4C0130204200D0B4E02B
:102C20004046002800D044E16046184300D190E1BE
:102C30000800384300D0AAE16146DB0849070B438E
:102C40006146CC0827E00800384361D0501E012AB5
:102C500000D139E1A24227D002005DE702001F390E
:102C6000CA401100202B03D04022D31A98400443BD
:102C7000631E9C410023994698460C43630700D08D
:102C800012E74B464A46E4085B072343D408424612
:102C900019498A420ED024035205240B520D22E713
:102CA0000A00002400231EE7DB0862465207134394
:102CB0006246D4081A00224300D1FCE180221203AC
:102CC000144324030C4A240B0DE7200000F002FB00
:102CD000010018311F2900DCC4E60838844043464F
:102CE00020000024884500DCC8E6044A5B1A104036
:102CF00098468146D6E6C046FF070000FFFF7FFFEB
:102D000001F8FFFFFE0700000F437A1E974191E68E
:102D10006146DB0849070B436146CC08B8E74046EB
:102D2000D34C0130204200D0A2E04046002800D021
:102D300001E16046184300D15EE10800384300D04D
:102D40005FE16146DB0849070B436146CC08A2E717
:102D5000C84DA84200D1CFE0802564462D042C4305
:102D6000A446382A56DC1F2A00DDD1E020251E00AB
:102D7000AD1A6446AB40AC40D6405D1EAB41344317
:102D800023436446D440091B49E06046DC1B461AD5
:102D9000A34280414042814630004E46801B81461E
:102DA000000276D44B46234300D052E6002400258F
:102DB00071E739430C00621E9441E4189C429B4128
:102DC0005B42634499464B461B0200D456E70123FD
:102DD0009C46A84BE044984538D04B46A648012273
:102DE00003401800630814401C43C3071C434308F6
:102DF000994657E610000E002038C640202A04D01D
:102E00004020821A91400F43B9464F467A1E97419F
:102E100037430FE662461A4313005A1E9341FC1AC9
:102E2000A742BF417F42CB1B99465D46804608E6DC
:102E300066461E4300D1BEE0561E012A00D109E1BC
:102E40008C4CA24200D119E13200C1E64246002476
:102E5000002348E620200C00801A3E008740844072
:102E6000D640781E8741D14034433C438C44A4E78C
:102E7000804A904200D1E9E0DF199F429B416144C2
:102E80005B42C918CC077F084B08994680463C43F3
:102E9000F4E6FC1AA742BF4163467F42C91ACB1B26
:102EA00099465D46D5E5FF084B075D463B43CC0898
:102EB000EEE662461A4300D082E00B003B431BD192
:102EC000802400252403F9E6DC199C429B416144DF
:102ED00089465B4299444B461B0244D401239846E1
:102EE000CCE6DC1B6246A3429B41511A5B42CB1AE3
:102EF000994601239846A4E5FF084B075D463B43EE
:102F0000CC08D7E662461A431400631E9C4179E65A
:102F100015006446203DEC40A046202A05D04025FF
:102F20006446AA1A944023439A465446631E9C4121
:102F30004346234373E762461A4323D00A003A43C9
:102F400000D0A0E06246DB08520713436246D40873
:102F5000B0E60B003B4300D128E7FF084B075D4676
:102F60003B43CC0897E60223984636E7FC1AA74273
:102F7000BF4163467F42C91ACB1B994601235D4678
:102F800098465EE54B07FF083B43CC0892E6DC1B06
:102F90006046A342B641401A7642801B8146000239
:102FA00060D5FC1AA742BF4163467F42C91ACB1BBA
:102FB00099465D4676E5FF084B073B43CC0867E63C
:102FC0000A00DB083A4300D16FE66246520713431A
:102FD0006246D40880221203144207D0C808104267
:102FE00004D15D460400FB0849070B435A0FDB0080
:102FF000DB08520713435DE64B07FF083B43CC0851
:1030000049E6DC199C429B41614489465B429944F4
:103010004B461B0200D431E64A46174B1A400123A7
:10302000914698462AE616006446203EF440A046A3
:10303000202A05D040266446B21A944023439A467B
:103040005446631E9C4143461C43DBE502000024BA
:10305000002348E5DC19BC42BF41614489467F42F8
:10306000B94438E74B46234300D19FE606E6C04605
:10307000FE070000FF070000FFFF7FFFFF084B0770
:103080003B43CC0816E66246DB0852071343624610
:10309000D40880221203144207D0C808104204D179
:1030A0005D460400FB0849070B435A0FDB0052073B
:1030B000DB081343FEE50023014A1C0013E5C0466C
:1030C000FF0700000A0030B5134C53000903050048
:1030D000090B00205B0DD20FA34204DD0F48834291
:1030E00002DD0F4BD01830BD8020400301430D4856
:1030F000C01A1F2808DD0C48C31AD9400B005842DB
:10310000002AF0D11800EEE7084CC540A4466344FD
:1031100099400B002B43F2E7FE0300001D04000062
:10312000FFFFFF7F3304000013040000EDFBFFFFEF
:1031300070B543004602C40FFE201B0E591C750AD1
:1031400008420CD0E022920094466D07360B63448F
:103150001B053343E40723432800190070BD002BEF
:1031600014D1002D1BD0280000F0B4F80A281CDC74
:103170000B232E001B1ADE40030015339D400E4A20
:103180003603121A5205360B530DE1E7002D09D014
:103190008022360B1203094B6D071643D8E7002334
:1031A0000026D5E70026054BD2E703000B3B9D40E8
:1031B0002E000025E3E7C04689030000FF0700005A
:1031C000002243088B4274D303098B425FD3030A66
:1031D0008B4244D3030B8B4228D3030C8B420DD379
:1031E000FF22090212BA030C8B4202D31212090207
:1031F00065D0030B8B4219D300E0090AC30B8B4245
:1032000001D3CB03C01A5241830B8B4201D38B03F2
:10321000C01A5241430B8B4201D34B03C01A524197
:10322000030B8B4201D30B03C01A5241C30A8B42DA
:1032300001D3CB02C01A5241830A8B4201D38B02C5
:10324000C01A5241430A8B4201D34B02C01A524169
:10325000030A8B4201D30B02C01A5241CDD2C309DB
:103260008B4201D3CB01C01A524183098B4201D357
:103270008B01C01A524143098B4201D34B01C01A42
:10328000524103098B4201D30B01C01A5241C308BA
:103290008B4201D3CB00C01A524183088B4201D329
:1032A0008B00C01A524143088B4201D34B00C01A15
:1032B0005241411A00D20146524110467047FFE781
:1032C00001B50020FEF77CFB02BDC0460029F7D007
:1032D00076E770471C2101231B04984201D3000CA0
:1032E00010391B0A984201D3000A08391B09984279
:1032F00001D30009043902A2105C40187047C0468F
:1033000004030202010101010000000000000000AE
:10331000F7B58B8905000C001A075FD44A68002AAC
:1033200004DC0A6C002A01DC0020FEBDE76A002FE5
:10333000FAD0002280212E682A601A0049010A4032
:103340000B4234D0606DA3895B0706D56368C01A51
:10335000636B002B01D0236CC01A0200216A00238A
:103360002800E76AB847A189431C06D12B681D2BAA
:1033700031D82C4ADA40D3072DD500236360236966
:103380002360CB0405D5431C02D12B68002B00D150
:103390006065616B2E600029C6D0230044339942DA
:1033A00002D0280000F004FA00206063BDE701238A
:1033B0002800216AB847431CC5D12B68002BC2D016
:1033C0001D2B01D0162B01D12E60ADE74023A28921
:1033D0001343A381A9E740230B43FAE70F69002FAA
:1033E000A2D00A680F60D21B019200229B0700D175
:1033F0004A69A260019B002B00DC95E73A00280097
:10340000019B216AA66AB047002806DC4023012000
:10341000A28940421343A38187E7019B3F181B1AEF
:103420000193E7E7010040200B6970B505000C002F
:10343000002B02D10025280070BD002804D083692C
:10344000002B01D100F0C8F8144B9C421BD16C68D2
:103450000C22A35E002BEDD0626ED20704D49B0534
:1034600002D4A06D00F094F928002100FFF750FF6E
:10347000636E0500DB07DED4A3899B05DBD4A06D5A
:1034800000F08CF9D7E7064B9C4201D1AC68DFE72E
:10349000044B9C42DCD1EC68DAE7C046AC4F000834
:1034A000CC4F00088C4F0008010010B5002805D152
:1034B000054B0649186800F046F910BD044B186822
:1034C000FFF7B2FFF9E7C046EC4F000829340008C7
:1034D00004000020002310B50400036043608360F3
:1034E000818143661900C2810361436183610822BF
:1034F0005C3000F054F9054B24626362044BA36214
:10350000044BE362044B236310BDC046653B0008D7
:10351000913B0008C93B0008F53B000810B5024983
:1035200000F011F910BDC04629340008436E10B5F3
:10353000DB0705D483899B0502D4806D00F028F950
:10354000002010BD436E10B5DB0705D483899B05B1
:1035500002D4806D00F022F9002010BD70B56825FE
:103560004A1E55430E002900743100F08DF9041EE7
:1035700008D000212A00016046600C30A06068324B
:1035800000F00DF9200070BD10B5024B1868FFF770
:10359000C5FF10BDEC4F000810B5024800F0F8F868
:1035A00010BDC046C201002010B5024800F0F6F878
:1035B00010BDC046C201002010B5024800F0E8F876
:1035C00010BDC046C301002010B5024800F0E6F867
:1035D00010BDC046C301002013B50400FFF7ECFF87
:1035E000A369002B02D0FFF7EFFF13BDA364E364D0
:1035F0002365134B134A1B68A2620193A34201D1B6
:103600000123A361200000F01FF86060200000F09B
:103610001BF8A060200000F017F800220421E060F1
:103620006068FFF757FF01220921A068FFF752FFEA
:1036300002221221E068FFF74DFF0123A361D2E7C8
:10364000EC4F00081D350008F8B50700FFF7A4FF90
:103650001F4B1E68B369002B02D13000FFF7BCFF7F
:103660004836B4687368013B04D53368002B22D018
:103670003668F6E70C22A55E002D1AD12000154B06
:103680005830E360656600F07FF8FFF78DFF20009B
:10369000082229002560A560656025616561A56136
:1036A0005C3000F07CF86563A563A564E5642000E8
:1036B000F8BD6834D7E704213800FFF74FFF041E38
:1036C0003060D5D1FFF770FF0C233B60EFE7C046B9
:1036D000EC4F00080100FFFF10B5FFF75DFF034B43
:1036E0000349186800F014F810BDC046040000201B
:1036F0002D35000810B5044B0449186800F008F88F
:10370000FFF752FF10BDC0460400002045350008F9
:10371000F7B54830040000260191A5686768013FAD
:1037200004D52468002CF8D13000FEBDAB89012BF4
:1037300007D90E22AB5E013303D02800019B9847C6
:1037400006436835EBE7F7B5040006000027019152
:1037500048346368A5680093009B013B009304D53F
:103760002468002CF5D13800FEBDAB89012B08D9A7
:103770000E22AB5E013304D029003000019B984734
:1037800007436835E8E770477047704770477047F0
:103790007047012070470120704770477047030051
:1037A0008218934200D1704719700133F9E7000085
:1037B00070B50500002910D00C1F2368002B00DA1B
:1037C000E418280000F09AFB1D4A1368002B05D16D
:1037D00063601460280000F099FB70BDA34208D913
:1037E000216860188342F3D118685B684118216032
:1037F000EEE71A005B68002B01D0A342F9D91168EB
:103800005018A0420BD1206809185018116083424B
:10381000E0D118685B68411811605360DAE7A04294
:1038200002D90C232B60D5E721686018834203D1AD
:1038300018685B684118216063605460CAE7C0463D
:10384000C801002070B50F4E0D003168040000293A
:1038500002D100F039F930602900200000F034F97D
:10386000431C0AD00323C51C9D43A84207D0291A34
:10387000200000F029F9431C01D101256D422800E8
:1038800070BDC046CC010020F7B50322CB1C93438A
:10389000083306001F000C2B32D20C27B94231D856
:1038A000300000F02BFB324D2B681C00002C2ED179
:1038B00039003000FFF7C6FF0400431C1ED12C68FE
:1038C0002500002D4AD123682900E3183000019318
:1038D00000F0FAF8019B834243D123680337FF1AB3
:1038E00003239F4308370C2F00D20C2739003000E8
:1038F000FFF7A8FF431C34D02368DF19276013E0CB
:10390000002BCBDA0C23002533602800FEBD226893
:10391000D11B20D40B2917D9E2192760A34211D15A
:103920002A606368116053603000250000F0EEFAF1
:1039300007220B35231D9543EA1A9D42E5D05B1BF8
:10394000A350E2E75A60ECE76268A34201D12A6023
:10395000EAE75A60E8E723006468A7E72C006D688F
:10396000AFE70C233000336000F0D0FACDE7C0465B
:10397000C80100200EB417B5041E04D08369002BC3
:1039800001D1FFF729FE06AB2000059AA16801933B
:1039900000F0DCFC1EBC08BC03B018470FB40B4B96
:1039A00013B51C68002C05D0A369002B02D12000A0
:1039B000FFF712FE05AB2000049AA168019300F006
:1039C000C5FC16BC08BC04B01847C0460400002063
:1039D00070B505000E00002804D08369002B01D1CA
:1039E000FFF7FAFDAB69AC68002B02D12800FFF7A6
:1039F000F3FD2D4B9C4222D16C68636EDB0705D42E
:103A0000A3899B0502D4A06DFFF7C2FEA3891B0703
:103A100002D52369002B29D12100280000F064F988
:103A2000002823D001256D42636EDB0705D4A389EE
:103A30009B0502D4A06DFFF7B1FE280070BD1B4BA3
:103A40009C4201D1AC68D8E7194B9C42D5D1EC68B7
:103A5000D3E70136A360002B04DAA2699A4216DC90
:103A60000A2914D023685A1C22601970A36831787F
:103A7000013B0029EDD1A360002B0FDA28002200C2
:103A80000A3100F0BDF80A25431CCDD1CAE7220057
:103A9000280000F0B5F8431CE8D1C3E70A252368E5
:103AA0005A1C22601D70BFE7AC4F0008CC4F0008C5
:103AB0008C4F000810B5034B01001868FFF788FF12
:103AC00010BDC04604000020002370B5064D040060
:103AD00008002B60FDF7F2FD431C03D12B68002B7F
:103AE00000D0236070BDC046B80100200CB400B502
:103AF0009DB00291069109491EAB079104910849B6
:103B000004CB059102A9019300F0EAFA0023029A7E
:103B100013701DB008BC02B01847C046FFFFFF7FFE
:103B20000802FFFF0EB400B50B499CB01DAB02901C
:103B30000690079104910948094904CB0591006852
:103B400002A9019300F0CCFA0023029A13701CB072
:103B500008BC03B01847C046FFFFFF7F04000020E9
:103B60000802FFFF70B50C000E25495F00F0B6FE9D
:103B7000002803DB636D1B18636570BDA389024ACF
:103B80001340A381F9E7C046FFEFFFFF0020704715
:103B9000F8B51F008B8905000C001600DB0505D564
:103BA0000E23C95E0022022300F028F9A389054AEA
:103BB00028001340A38132000E23E15E3B0000F099
:103BC0007FF8F8BDFFEFFFFF70B50C000E25495FD1
:103BD00000F014F9A389421C03D1054A1340A381C4
:103BE00070BD802252011343A3816065F8E7C0468F
:103BF000FFEFFFFF10B50E23C95E00F0EDF810BD1A
:103C0000F8B505000E001400002804D08369002BCD
:103C100001D1FFF7E1FC224B9C422ED16C68A369D5
:103C2000A360A3891B0732D52369002B2FD02368FB
:103C30002269F7B2981A6369F6B2834205DC210063
:103C40002800FFF7F1FB002827D1A3680130013BD2
:103C5000A36023685A1C22601F706369834204D0EA
:103C6000A389DB0707D50A2E05D121002800FFF71D
:103C7000DBFB002811D13000F8BD0A4B9C4201D17A
:103C8000AC68CCE7084B9C42C9D1EC68C7E721007F
:103C9000280000F029F80028C9D001267642EAE77A
:103CA000AC4F0008CC4F00088C4F000810B5034BF8
:103CB0000A0001001868FFF7A3FF10BD04000020F0
:103CC00070B50400080011001A000023054D2B6098
:103CD000FDF762FD431C03D12B68002B00D023604D
:103CE00070BDC046B8010020374B70B51D68060096
:103CF0000C00002D05D0AB69002B02D12800FFF786
:103D00006BFC324B9C420FD16C680C23E25E93B289
:103D100011072DD4D90611D409230120336037337C
:103D20001343A381404270BD294B9C4201D1AC6832
:103D3000EBE7284B9C42E8D1EC68E6E75B0713D53C
:103D4000616B002908D023004433994202D030002F
:103D5000FFF72EFD002363632422A3899343A381ED
:103D600000236360236923600823A2891343A3818E
:103D70002369002B0BD1A0218022A3898900920006
:103D80000B40934203D02100300000F073F80C2266
:103D9000A35E01201A0099B2024003420FD0002214
:103DA000A26062695242A261002022698242BAD1B5
:103DB0000A06B8D540221343A3810138B3E7880728
:103DC00000D46269A260EFE704000020AC4F000855
:103DD000CC4F00088C4F0008002370B5064D04003E
:103DE00008002B60FDF7B9FB431C03D12B68002BA7
:103DF00000D0236070BDC046B801002070B504003B
:103E0000080011001A000023054D2B60FDF700FC8F
:103E1000431C03D12B68002B00D0236070BDC0462B
:103E2000B801002070B50E001D000E23C95E1400FD
:103E300096B0002908DA0C22B35E00222A601B0625
:103E400011D48023DB000FE06A4600F05BFD002800
:103E5000F1DBF02301991B021940054BC9184B42B5
:103E600059412960EDE740230020236016B070BD62
:103E700000E0FFFFF7B502268B8905000C003342F6
:103E800006D0230047332360236101236361F7BD1C
:103E90006A4601ABFFF7C6FF009907002800FFF74D
:103EA000F3FC002808D10C22A35E9A05EFD403226C
:103EB00093431E43A681E4E70F4BAB628023A289A4
:103EC00020601343A381009B20616361019B002B51
:103ED0000DD028000E23E15E00F08EFE002806D0F3
:103EE0000322A38993431A0001231343A381A089CA
:103EF0000743A781CBE7C0461D35000810B502482F
:103F0000FFF746FC10BDC046C101002010B50248B5
:103F1000FFF744FC10BDC046C1010020F0B58E681B
:103F200085B007000C00039201939E423CD8902379
:103F30008A89DB001A4234D00969236860695B1AF8
:103F4000029303234343DD0FED18019B02980133D5
:103F50001B186D10AB4200D91D00530532D5290046
:103F60003800FFF791FC061E09D10C233B6040236B
:103F70000120A28940421343A38105B0F0BD029AFB
:103F8000216900F056FEA389144A1A408023134386
:103F9000A381029B2661F61826606561019EED1AD9
:103FA000A560019B9E4200D9019E320003992068C2
:103FB00000F048FEA36800209B1BA36023689E19A5
:103FC0002660DAE72A00380000F04FFE061EE0D136
:103FD00038002169FFF7ECFBC7E7C0467FFBFFFF16
:103FE000F0B5936887B00C0017000290002B65D0E5
:103FF00013680393002305930193019B002B2DD09D
:10400000A6689E4249D89023A289DB001A4241D07B
:104010000320216923685B1A049363694343DD0F1E
:10402000ED18049B019801331B186D10AB4200D9A9
:104030001D00530546D529000298FFF725FC061EF2
:1040400016D10C23029A012013604023A28940421A
:104050001343A3810023BB607B6031E0039B1B689B
:104060000593039B5B680193039B08330393C4E7A9
:10407000049A216900F0DDFDA389184A1A408023C3
:104080001343A381049B2661F61826606561019E97
:10409000ED1AA560019B9E4200D9019E3200059950
:1040A000206800F0CFFDA368019A9B1BA3602368E2
:1040B0009E19BB6826609B1ABB60CFD10020786038
:1040C00007B0F0BD2A00029800F0CFFD061ED9D13E
:1040D00021690298FFF76CFBB3E7C0467FFBFFFF47
:1040E000F0B5A1B003901D008B890F0016001B06D0
:1040F00011D50B69002B0ED14021FFF7C5FB3860AD
:104100003861002805D10C23039A0138136021B0CF
:10411000F0BD40237B61002308AC636120336376EC
:104120001033A376079535002B78002B01D0252B73
:1041300047D1AB1B0593B5420CD032003900039830
:10414000FFF7ECFE431C00D1AEE06269059B94468C
:10415000634463612B78002B00D1A5E0012200238A
:104160005242626004A9543252186E1C2360E3600C
:10417000A3601370A36505223178544800F04EFD0A
:10418000751C00281FD12268D30604D5532304A927
:104190005B1820211970130704D5532304A95B1859
:1041A0002B21197033782A2B16D0350000210A20D4
:1041B000E3682A786E1C303A092A4ED9002911D1B9
:1041C00017E00135B0E7414B2268C01A0123834054
:1041D00013432E002360CEE7079B191D1B68079130
:1041E000002B01DB0B9304E05B42E36002231343EB
:1041F00023602B782E2B0AD16B782A2B35D1079B85
:1042000002351A1D1B680792002B2BDB0993304ED9
:1042100003223000297800F001FD002806D0402359
:10422000801B8340226801351343236029780622CE
:1042300028486E1C217600F0F1FC00283CD0264B6B
:10424000002B25D10722079B07339343083307939D
:104250006369049A9B18636165E743433500012154
:104260009B18A6E701235B42D0E700230A201A002F
:104270000135636029786E1C3039092903D9002B78
:10428000C5D00992C3E74243350001235218F1E734
:1042900007AB00933A002100104B039800E000BFE9
:1042A0000490049B0133D3D1BB890D985B0600D4E5
:1042B0002DE7012040422AE707AB00933A00210096
:1042C000064B039800F0F8F9EAE7C046F04F000803
:1042D000F64F0008FA4F0008000000001D3F0008DC
:1042E000936810B5013B9360002B04DA9469A342F4
:1042F00007DB0A2905D01368581C106019700800E4
:1043000010BDFFF77DFC0100F9E7F8B506000F00CE
:104310001400D518AC4201D1002007E021783A0002
:104320003000FFF7DDFF0134431CF3D1F8BD936883
:1043300010B51400002B02D11800536010BD00F01E
:10434000F3FA0023A3606360F8E70000F0B5A1B0C2
:1043500006000C001F000392002804D08369002B84
:1043600001D1FFF739F98E4B9C421CD17468636E02
:10437000DB0705D4A3899B0502D4A06DFFF708FADB
:10438000A3891B0702D52369002B1DD12100300012
:10439000FFF7AAFC002817D0636EDB070DD50120BC
:1043A000404221B0F0BD7F4B9C4201D1B468DEE7B2
:1043B0007D4B9C42DBD1F468D9E7A3899B05EED401
:1043C000A06DFFF7EBF9EAE7002308AD6B6120333E
:1043D0006B761033AB760797039F3B78002B01D0A9
:1043E000252B4ED1039BFB1A0593039B9F420DD0B7
:1043F000059B21003000039AFFF787FF431C00D183
:10440000B5E06A69059B944663446B613B78002B79
:1044100000D1ACE001227B1C0393002352426A606E
:1044200004A9543252182B60EB60AB601370AB657B
:10443000039B052219785D4800F0F0FB039B5F1C8D
:10444000002820D12A68D30604D5532304A95B1879
:1044500020211970130704D5532304A95B182B21BD
:104460001970039B1B782A2B16D00021EB68039F41
:104470003A78781C303A8446092A4FD9002911D15C
:1044800017E00137A9E7494B2A68C01A0123834086
:1044900013432B600397CBE7079B191D1B680791FC
:1044A000002B01DB0B9304E05B42EB600223134320
:1044B0002B603B782E2B0AD17B782A2B37D1079B98
:1044C00002371A1D1B680792002B2DDB099303226C
:1044D0003978374800F0A2FB002807D0344B2A680F
:1044E000C01A40238340134301372B6039787B1C6B
:1044F000062230480393297600F090FB002845D02F
:104500002D4B002B27D10722079B073393430833FA
:1045100007936B69049A9B186B615DE70A214B4313
:1045200067469B180939A3E701235B42CEE70023C6
:104530001A0001376B603978781C303984460929B4
:1045400003D9002BC3D00992C1E70A235A43674617
:104550005218093BEFE707AB009322002900300017
:10456000164B00E000BF0490049B0133D1D1636E71
:10457000DB0705D4A3899B0502D4A06DFFF70EF9D4
:10458000A3895B0600D50AE70D980AE707AB0093FD
:10459000220029003000094B00F08EF8E3E7C04606
:1045A000AC4F0008CC4F00088C4F0008F04F0008BB
:1045B000F64F0008FA4F0008000000000B43000807
:1045C00010B513000A00010002480068FFF7BEFEA4
:1045D00010BDC04604000020F7B5150001938A689D
:1045E0000B690C000090934200DA130022002B604C
:1045F00043321278002A01D001332B6023689B06D6
:1046000002D52B6802332B602268062317001F4057
:104610001A4227D0230043331B785A1E9341226845
:10462000920630D4220001990098089E4332B04788
:10463000431C25D0062320682A68E1680025034032
:10464000042B03D18D1AEB43DB171D40A3682269AD
:10465000934201DD9B1AED180027BD4220D10020B6
:1046600010E00137E3682A689B1ABB42D2DD2200C2
:10467000012301990098089E1932B047431CF0D1DC
:1046800001204042FEBD3020E11843310870210076
:104690005A1C45310978A218433202331170C1E720
:1046A0002200012301990098089E1A32B047431C4A
:1046B000E6D00137D1E70000F0B58BB006920A00D2
:1046C00043320793059004920A7E0C00109B782ACF
:1046D00007D8622A09D8002A00D1C1E0582A00D19F
:1046E0008CE026004236327022E010006338152834
:1046F000F7D800F0F1FA16001F00F6FFF6FFF6FFFC
:10470000F6FF1F00F6FFF6FFF6FFF6FFA8003600E3
:104710009A00F6FFF6FFB900F6FF3600F6FFF6FF47
:104720009E0026001A684236111D19601368337006
:104730000123A7E0086819680A1D05060BD50D6856
:104740001A60002D03DA2D23049A6D421370614B19
:104750000A2703931BE00D681A604106F1D52DB2BC
:10476000EFE70D681968081D18602E0601D50D6861
:1047700003E06D06FBD50D68ADB2564B08270393D9
:104780006F2A00D002372300002243331A70636877
:10479000A360002B03DB0422216891432160002DDC
:1047A00002D1049E002B0CD0049E28003900FEF795
:1047B0008DFD039B013E5B5C33702B0005009F4227
:1047C000F3D9082F09D12368DB0706D5636822696E
:1047D000934202DC3023013E3370049B9B1B236118
:1047E000079B210000930598069B09AAFFF7F4FE9A
:1047F000431C4CD1012040420BB0F0BD45310A7042
:10480000344A03921A68216820CA1A60080616D52D
:10481000CB0702D52023194321601027002DB2D1E8
:10482000202322689A432260ADE7202209680A43C8
:1048300022602200782145321170274AE1E74806BC
:10484000E6D5ADB2E4E71A680D68101D4969186035
:1048500013682E0601D5196002E06D06FBD519809C
:104860000023049E2361BBE71A68111D19601668B6
:1048700000213000626800F0D1F9002801D0801BCF
:104880006060636823610023049A1370A8E72369BA
:10489000320006990598079DA847431CAAD02368B3
:1048A0009B0715D4099BE0689842A5DA1800A3E796
:1048B0002200012306990598079E1932B047431C30
:1048C00098D00135E368099A9B1AAB42F0DCE9E71E
:1048D0000025F7E7015000081250000870B50400E9
:1048E000080011001A000023054D2B60FCF718FF8B
:1048F000431C03D12B68002B00D0236070BDC04641
:10490000B8010020002370B5064D04000800110016
:104910002B60FCF749FE431C03D12B68002B00D011
:10492000236070BDB8010020F0B5936887B00C001B
:1049300017000390002B02D1002007B0F0BD8B8937
:104940001B0759D50B69002B56D03B6802220293F6
:10495000A38918001040134275D1012201211A4089
:104960000B4200D1ADE0060001900490049B002BA7
:1049700000D116E100280CD11A000A21300000F005
:104980004DF9049B01330193002802D00130831BB1
:104990000193019B049A0593934200D905922068E4
:1049A00022696369904200D804E1A2689D18059AC3
:1049B000AA4200DCFEE031002A0000F043F923683F
:1049C00021005B1903982360FEF72EFD002873D1A8
:1049D000019B01205B1B019305D121000398FEF789
:1049E00023FD002868D1049B76195B1B0493BB68E8
:1049F0005D1BBD60BAD19FE721000398FFF774F9F2
:104A00000028A2D00120404297E7029B1B68019337
:104A1000029B5D6808330293002DF6D0724A2B008A
:104A2000954200D91300019A216A0398A66AB047FB
:104A3000002841DD019B2D1A1B180193BB68181A31
:104A4000B860E9D178E700231D000193E4E7029BF9
:104A50001B680493029B5B680193029B08330293DB
:104A6000019B002BF3D08023A2899B002068A568BE
:104A70001A4264D0019B9D4238D89023DB001A4231
:104A800034D02169431A0320059363695843059B79
:104A9000C60F3618019801331B187610B34200D99F
:104AA0001E0053053CD531000398FEF7EDFE051EB0
:104AB0000AD10C23039A13604023A2891343A381D4
:104AC000A0E704920192CBE7059A216900F0B1F8C2
:104AD000A389464A1A4080231343A381059B25617D
:104AE000ED1825606661019DF61AA660019EB5422B
:104AF00000D935002A000499206800F0A3F8A368C3
:104B00005B1BA36023685D192560049B9B190493BC
:104B1000019B9B1B0193BB689E1BBE60A0D10BE752
:104B20003200039800F0A1F8051ED7D1216903983F
:104B3000FEF73EFE8022A3899343A381B9E7236950
:104B4000834203D36669019B9E4217D9019B9D4214
:104B500000D91D002A00049900F074F8A3682268A7
:104B60005B1B52192E00A3602260002BCDD12100C7
:104B70000398FEF759FC0028C7D09DE7019A1C4B0B
:104B800010009A4200D91B483100FCF72FFE330079
:104B9000049A4343216A0398A56AA847061EB4DC19
:104BA0008AE7029B00201E685B680493029B08331F
:104BB0000293DBE6059A934208DCA56A3200216A7B
:104BC0000398A847051E00DD02E775E7059A310046
:104BD00000F038F8059AA36815009B1AA3602368B3
:104BE0009B182360F4E6C04600FCFF7F7FFBFFFFBD
:104BF000FEFFFF7FFFFFFF7F002370B5064D04001F
:104C000008002B60FCF746FD431C03D12B68002BEA
:104C100000D0236070BDC046B8010020C9B2821820
:104C2000904201D10020704703788B42FBD00130C5
:104C3000F6E7002310B59A4200D110BDCC5CC454F5
:104C40000133F8E710B5884202D98B18984203D394
:104C5000002307E08B5C8354013AFBD210BDCC5C8F
:104C6000C45401339A42FAD1F8E7F7B507000E00B1
:104C70001400002905D11100FEF706FE05002800EA
:104C8000FEBD002A03D1FEF793FD2500F7E700F0F3
:104C90001BF80190844203D835004308A342EED3A9
:104CA00021003800FEF7F0FD051EE8D0019B220030
:104CB0009C4200D91A0031002800FFF7BAFF3100EA
:104CC0003800FEF775FDDAE70B1F1B68181F002B75
:104CD00001DA0B58C018704703B471464908400008
:104CE0004900095E49008E4403BC7047436F6D6DF7
:104CF000616E643A20257300526573706F6E736540
:104D00003A2025730000000041542B44564944309A
:104D10003030300D0A0000000D0A4A44592D34305D
:104D2000204D617374657220746573740D0000000A
:104D300041542B5645520D0A0000000041542B42AD
:104D40004155440D0A00000041542B524649440D80
:104D50000A00000041542B445649440D0A0000004B
:104D600041542B5246430D0A0000000041542B5081
:104D70004F57450D0A00000041542B434C53530D2F
:104D80000A00000041542B44564944424545450D14
:104D90000A00000041542B5246433033300D0A00C4
:104DA00025642025642025642025642025640A00CC
:104DB000536C61766520736179733A2025730D0019
:104DC000204E6F20726573706F6E7365200D0A0040
:104DD0000D0A52657475726E65642066726F6D207F
:104DE0006D61696E28292E202053797374656D20BA
:104DF00073746F702E000000496E74657272757066
:104E00007420776974686F75742068616E646C656E
:104E1000722028495352292E202053797374656DCE
:104E20002073746F702E00004861726420466175B3
:104E30006C7420696E746572727570742E202053C4
:104E4000797374656D2073746F702E00981B000861
:104E5000241B0008801A0008381A0008801A00086D
:104E6000601B0008801A0008381A0008241B00087C
:104E7000241B0008601B0008381A00083E1A0008AE
:104E80003E1A00083E1A00086E1B0008241B00088A
:104E9000241B0008801A0008341A0008801A000831
:104EA000601B0008801A0008341A0008241B000840
:104EB000241B0008601B0008341A00083E1A000872
:104EC0003E1A00083E1A00086A1B0008981C0008D9
:104ED000681C0008681C0008661C00086C1C0008A0
:104EE0006C1C0008B41D0008661C00086C1C00083F
:104EF000B41D00086C1C0008661C0008601D00083A
:104F0000601D0008601D0008F01D0008B81F0008A3
:104F1000A61F0008841F0008AE1F0008841F000899
:104F200086220008841F0008AE1F0008A61F000884
:104F3000A61F000886220008AE1F0008701F000888
:104F4000701F0008701F0008FC220008AE25000832
:104F50006C2500086C2500086825000872250008EB
:104F6000722500087E2800086825000872250008C0
:104F70007E2800087225000868250008122800080D
:104F80001228000812280008E82800080000000085
:104F90000000000000000000000000000000000011
:104FA0000000000000000000000000000000000001
:104FB00000000000000000000000000000000000F1
:104FC00000000000000000000000000000000000E1
:104FD00000000000000000000000000000000000D1
:104FE0000000000000000000000000000800002099
:104FF000232D302B2000686C4C00656667454647C2
:105000000030313233343536373839414243444544
:1050100046003031323334353637383961626364B3
:0450200065660000C1
:10502400B00100200800002000000000AC4F000880
:10503400CC4F00088C4F0008000000000000000066
:10504400000000000000000000000000000000005C
:10505400000000000000000000000000000000004C
:10506400000000000000000000000000000000003C
:10507400000000000000000000000000000000002C
:08508400000000000000000024
:04000005080000B936
:00000001FF
