:020000040800F2
:1000000000200020B9000008BD120008D11200082D
:1000100000000000000000000000000000000000E0
:10002000000000000000000000000000BD120008F9
:100030000000000000000000BD120008BD12000812
:10004000BD120008BD120008BD120008BD12000854
:10005000BD120008BD120008BD120008BD12000844
:1000600000000000BD120008BD120008BD1200080B
:10007000BD120008BD12000800000000BD120008FB
:1000800000000000BD120008000000000000000099
:10009000BD12000800000000BD120008BD120008DB
:1000A000BD120008BD120008BD1200082508000896
:1000B000D50D0008BD12000801F07CF801F03EF8F3
:1000C000E1235B02180000F005FB62B6C04600F0B9
:1000D00057F9024B180000F06DFCFEE78C33000866
:1000E00080B582B000AF0200FB1D1A70FB1D1B78AB
:1000F0001900104801F044FA030019000E4801F0FD
:100100003FFA03005A1E0D4B5A600C4B00229A60B6
:100110000A4B05221A60C046084B1A6880235B020E
:100120001340F9D0054B00221A60C046BD4602B00C
:1001300080BDC04640420F000048E80110E000E0EA
:1001400080B584B000AF78600023FB6015E00B231E
:10015000FB1800221A7008E0FA20FFF7C1FF0B21FC
:100160007B181A787B1801321A700B23FB181B7846
:10017000032BF1D9FB680133FB60FA687B689A4274
:10018000E5D3C046C046BD4604B080BD80B500AFD3
:10019000A023DB05012252429A601B4BDA6A1A4BFC
:1001A00001210A43DA62A023DB051B68174A1A40C3
:1001B000A023DB058021C9040A431A60A023DB05C4
:1001C0005A69A023DB05802189010A435A61A023D3
:1001D000DB051A68A023DB050D490A401A60A0233D
:1001E000DB05DA68A023DB05802149020A43DA60D7
:1001F000A023DB05DA68A023DB0506490A40DA60A4
:10020000C046BD4680BDC04600100240FFFFFFF360
:10021000FFFFFCFFFFFFFDFF80B500AF204BDA6A58
:100220001F4B02210A43DA621E4B1A681D4BC02184
:100230008A431A601B4B1A681A4B1B490A401A6002
:10024000184B1A68174B19490A401A60154BDA689F
:10025000144BC0218A43DA60124BDA68114B4021FB
:100260000A43DA600F4BDA680E4B0F490A40DA6036
:100270000C4BDA680B4B8021C9000A43DA60094B4A
:10028000DA68084B09490A40DA60064BDA68054B20
:10029000802149010A43DA60C046BD4680BDC046A0
:1002A0000010024000040050FFF3FFFFFFCFFFFFEC
:1002B00090B58DB000AF78607A68184B11001800C7
:1002C00001F070FAA023DB055A69A023DB0514496D
:1002D0000A405A610A20FFF733FF7B68180000F0DC
:1002E00041FE08243B192721180000F075FEA023C9
:1002F000DB055A69A023DB05802189010A435A6185
:100300000A20FFF71DFF3A19064B1100180001F0F3
:1003100049FAC046BD460DB090BDC0465C320008EB
:10032000FFDFFFFF6832000880B500AFA023DB05C8
:100330005A69A023DB0510490A405A610A20FFF7D9
:10034000FFFE0E4B180000F00DFE0A20FFF7F8FE2E
:10035000A023DB055A69A023DB05802189010A431C
:100360005A6101E000F02BFE00F07CFE031EF9DC78
:10037000C046C046BD4680BDFFDFFFFF78320008A3
:1003800090B5A1B000AF0023FB670023BB676423D7
:100390007B67FFF7FBFE96239B01180000F074FCBF
:1003A000FFF73AFFFA239B001800FFF7C9FE714BD5
:1003B000180001F083FAFFF7B7FF6F4B1800FFF743
:1003C00077FF6E4B1800FFF773FF6D4B1800FFF7B8
:1003D0006FFF6C4B1800FFF76BFF6B4B1800FFF7BC
:1003E00067FF6A4B1800FFF763FF694B1800FFF7C0
:1003F0005FFF684B1800FFF75BFF3B1D00221A6090
:1004000004331C220021180001F0AFF9624B1B6974
:10041000082213400ED13B1D180001F095FA03008D
:100420001A003B1D9A185D4B100019000B231A008F
:1004300001F092F9584B1B69202213400ED13B1D4D
:10044000180001F081FA03001A003B1D9A18544B62
:10045000100019000D231A0001F07EF94E4B1B69A4
:10046000402213400ED13B1D180001F06DFA03002D
:100470001A003B1D9A184B4B100019000E231A004E
:1004800001F06AF93B1D1B78002B11D03A1D46493B
:1004900024243B19180001F037FA3B19180000F02A
:1004A00061FD3A19414B1100180001F07BF920E081
:1004B0007B6FBA6F3E492424381901F025FA2120B8
:1004C00000F06EFD0520FFF73BFE3B19180000F021
:1004D00049FDBB6F0133BB67BB6FC82B01DD002338
:1004E000BB677B6F01337B677B6FC82B01DD00230C
:1004F0007B670520FFF724FE402000F051FD00231C
:10050000FB6700F0AFFD031E09DCFB6F0133FB67E7
:10051000FB6FFA2B05DC6420FFF7E2FDF1E7C04634
:1005200000E0C04600F09EFD031E1BDD24243B19A5
:100530004F21180000F050FD3B19180001F004FA9B
:100540000300062B06D13A191A4B1100180001F0CE
:1005500029F90BE02423FA18174B1100180001F0B9
:1005600021F903E0154B180001F0A8F93220FFF73C
:10057000E7FD42E788320008A0320008AC320008EC
:10058000B8320008C4320008D0320008DC3200085B
:10059000E8320008F4320008000400500433000878
:1005A00010330008203300083033000840330008BF
:1005B0004433000850330008603300087C330008DF
:1005C00090B585B000AF78603960184B1B68002B80
:1005D00002D101235B4224E00023FB600AE0FB68B8
:1005E0005A1CFA603A68D418114B180000F0ADF9A3
:1005F000030023707B68013B1A00FB68934205D21D
:100600000B4B180000F0CCF9031EE8D1FB68002B5F
:1006100006D03A68FB68D31800221A70FB6800E025
:1006200000231800BD4605B090BDC0460001002063
:100630006800002080B584B000AF78603960224B3C
:100640001B68002B02D101235B4238E07B683F2B03
:100650000BDCC0461D4B180000F0A2F9030040223D
:10066000D21A7B689A42F5D302E002235B4226E06D
:100670000023FB600BE03A68FB68D3181A78134B31
:100680001100180000F030F9FB680133FB607B6853
:10069000FA689A42EFD30E4B1B68082213400DD123
:1006A0000B4B1A680A4B08210A431A60074B1800C3
:1006B00000F04BF903001A00054B9A620023180062
:1006C000BD4604B080BDC04600010020B40000203B
:1006D0000038014080B584B000AF786072B6C04683
:1006E000454B00229A64444B9A6C434B5A64424BEC
:1006F0005A6C414B1A64414B00229A643F4B9A6CEE
:100700003E4B5A643D4B5A6C3C4B1A643C4B0122A5
:100710001A603C4B00221A603B4BDA6A3A4B0121CB
:100720000A43DA62394BFB607968F86800F028FF09
:100730000300FB60A023DB059A68A023DB05802172
:10074000C9020A439A60A023DB055A68A023DB058F
:100750002F490A405A60A023DB051B682D4A1A4026
:10076000A023DB05802109030A431A60A023DB05CF
:100770005A6AA023DB0540210A435A62A023DB0505
:100780001B68254A1A40A023DB05802189030A4300
:100790001A60A023DB055A6AA023DB058021C9006B
:1007A0000A435A62184B5A6B174B8021C9010A43FE
:1007B0005A631A4B1A68194B6C210A431A60174B7B
:1007C00000225A60154B00229A60144BFA68DA60D6
:1007D000124B1A68114B01210A431A60104B1A6818
:1007E0000F4B802109050A431A6062B6C046C04615
:1007F000BD4604B080BDC04668000020B4000020A3
:100800000001002004010020001002400048E8011F
:10081000FFFDFFFFFFFFF3FFFFFFCFFF00380140A9
:1008200000E100E080B500AF084BDB698022134097
:1008300001D000F025F8054BDB692022134001D0E0
:1008400000F006F8C046BD4680BDC04600380140F5
:1008500080B500AF074B5B6ADAB2074B1100180096
:1008600000F042F8031E02D0044B01221A60C04679
:10087000BD4680BD00380140680000200401002012
:1008800080B500AF164B180000F08AF8031E08D0A0
:10089000134B180000F059F803001A00114B9A622C
:1008A0001BE0104B1A680F4B08218A431A600D4B4E
:1008B000DB694022134005D00A4B1A6A094B4021DC
:1008C0000A431A62074BDB698022134005D0054BAF
:1008D0009A69044B10210A439A61C046BD4680BD07
:1008E000B40000200038014080B582B000AF7860CD
:1008F0000A00FB1C1A707B681A6C7B685B6C9A425E
:1009000005D17B689B6C002B01D0012319E072B6E6
:10091000C0467B681B6C591C7A6811647A68F91CA4
:100920000978D1547B689B6C5A1C7B689A647B68FD
:100930001B6C402B02D17B6800221A6462B6C04651
:1009400000231800BD4602B080BD80B584B000AF62
:1009500078607B689B6C002B01D100231CE072B691
:10096000C0467B685B6C591C7A6851640F22BA18C8
:100970007968CB5C13707B685B6C402B02D17B6821
:1009800000225A647B689B6C5A1E7B689A6462B62C
:10099000C0460F23FB181B781800BD4604B080BD6D
:1009A00080B582B000AF78607B689B6C1800BD4654
:1009B00002B080BD80B582B000AF78600B4B1B6881
:1009C000002B09D101235B420BE07B685A1C7A6043
:1009D00019000120FFF72EFE7B681B78002BF4D155
:1009E00000231800BD4602B080BDC04600010020B3
:1009F00080B582B000AF0200FB1D1A70FB1D19000C
:100A00000120FFF717FEC046BD4602B080BD80B58D
:100A100000AF044B1800FFF798FF03001800BD4615
:100A200080BDC04668000020B0B584B000AF7860DB
:100A300039601E4B1B68002B02D101235B4231E061
:100A40000023FB600B23FB1800221A7017E0C0463E
:100A5000174B1800FFF7A4FF031EF9D00B257C19D4
:100A6000134B1800FFF771FF03002370FB685A1C3B
:100A7000FA601A007B689B187A1912781A703B6822
:100A8000013BFA689A4204DA0B23FB181B780D2B02
:100A9000DDD1FB68002B04DDFB687A68D3180022E7
:100AA0001A70FB681800BD4604B0B0BD00010020FC
:100AB0006800002090B583B000AFFC1DFFF7A7FFD2
:100AC00003002370FB1D1B781800FFF791FFFB1D2F
:100AD0001B781800BD4603B090BDB0B584B000AF20
:100AE00078603960214B1B68002B02D101235B42E7
:100AF00037E00023FB600B23FB1800221A701DE077
:100B0000C0461B4B1800FFF74BFF031EF9D00B2507
:100B10007C19174B1800FFF718FF030023702C00F7
:100B20003B191B781800FFF763FFFB685A1CFA603B
:100B30001A007B689B183A1912781A703B68013BBF
:100B4000FA689A4204DA0B23FB181B780D2BD7D1D5
:100B5000FB68002B04DDFB687A68D31800221A704A
:100B6000FB681800BD4604B0B0BDC04600010020BF
:100B70006800002090B585B000AF78603960184BF0
:100B80001B68002B02D101235B4224E00023FB60A1
:100B90000AE0FB685A1CFA603A68D418114B180036
:100BA00000F0ABF9030023707B68013B1A00FB687F
:100BB000934205D20B4B180000F0CAF9031EE8D18E
:100BC000FB68002B06D03A68FB68D31800221A7025
:100BD000FB6800E000231800BD4605B090BDC0468C
:100BE000A40100200C01002080B584B000AF786023
:100BF0003960224B1B68002B02D101235B4238E095
:100C00007B683F2B0BDCC0461D4B180000F0A0F9A1
:100C100003004022D21A7B689A42F5D302E00223F5
:100C20005B4226E00023FB600BE03A68FB68D318C8
:100C30001A78134B1100180000F02EF9FB680133ED
:100C4000FB607B68FA689A42EFD30E4B1B68082260
:100C500013400DD10B4B1A680A4B08210A431A6046
:100C6000074B180000F049F903001A00054B9A627F
:100C700000231800BD4604B080BDC046A40100207A
:100C8000580100200044004080B584B000AF786077
:100C900072B6C046454B00229A64444B9A6C434B53
:100CA0005A64424B5A6C414B1A64414B00229A647D
:100CB0003F4B9A6C3E4B5A643D4B5A6C3C4B1A640A
:100CC0003C4B01221A603C4B00221A603B4BDA6A13
:100CD0003A4B01210A43DA62394BFB607968F868C4
:100CE00000F04EFC0300FB60A023DB059A68A02304
:100CF000DB05802149050A439A60A023DB055A6879
:100D0000A023DB052F490A405A60A023DB051B689E
:100D10002D4A1A40A023DB05802189050A431A6069
:100D2000A023DB055A6AA023DB058021C9040A43FE
:100D30005A62A023DB051B689B009A08A023DB05F1
:100D4000802109060A431A60A023DB055A6AA02302
:100D5000DB058021C9050A435A62184B9A6B174B71
:100D6000802189020A439A63184B1A68174B6C2139
:100D70000A431A60154B00225A60144B00229A60F5
:100D8000124BFA68DA60114B1A68104B01210A43C2
:100D90001A600F4B1A680E4B802149050A431A60EE
:100DA00062B6C046C046BD4604B080BD0C010020FE
:100DB00058010020A4010020A801002000100240DA
:100DC0000048E801FFBFFFFFFFFFFFCF00440040E6
:100DD00000E100E080B500AF084BDB6980221340E2
:100DE00001D000F025F8054BDB692022134001D02B
:100DF00000F006F8C046BD4680BDC0460044004035
:100E000080B500AF074B5B6ADAB2074B11001800E0
:100E100000F042F8031E02D0044B01221A60C046C3
:100E2000BD4680BD004400400C010020A801002008
:100E300080B500AF164B180000F08AF8031E08D0EA
:100E4000134B180000F059F803001A00114B9A6276
:100E50001BE0104B1A680F4B08218A431A600D4B98
:100E6000DB694022134005D00A4B1A6A094B402126
:100E70000A431A62074BDB698022134005D0054BF9
:100E80009A69044B10210A439A61C046BD4680BD51
:100E9000580100200044004080B582B000AF786067
:100EA0000A00FB1C1A707B681A6C7B685B6C9A42A8
:100EB00005D17B689B6C002B01D0012319E072B631
:100EC000C0467B681B6C591C7A6811647A68F91CEF
:100ED0000978D1547B689B6C5A1C7B689A647B6848
:100EE0001B6C402B02D17B6800221A6462B6C0469C
:100EF00000231800BD4602B080BD80B584B000AFAD
:100F000078607B689B6C002B01D100231CE072B6DB
:100F1000C0467B685B6C591C7A6851640F22BA1812
:100F20007968CB5C13707B685B6C402B02D17B686B
:100F300000225A647B689B6C5A1E7B689A6462B676
:100F4000C0460F23FB181B781800BD4604B080BDB7
:100F500080B582B000AF78607B689B6C1800BD469E
:100F600002B080BD80B582B000AF78600B4B1B68CB
:100F7000002B09D101235B420BE07B685A1C7A608D
:100F800019000120FFF730FE7B681B78002BF4D19D
:100F900000231800BD4602B080BDC046A401002059
:100FA00080B582B000AF0200FB1D1A70FB1D190056
:100FB0000120FFF719FEC046BD4602B080BD80B5D6
:100FC00000AF044B1800FFF798FF03001800BD4660
:100FD00080BDC0460C010020B0B584B000AF786081
:100FE00039601E4B1B68002B02D101235B4231E0AC
:100FF0000023FB600B23FB1800221A7017E0C04689
:10100000174B1800FFF7A4FF031EF9D00B257C191E
:10101000134B1800FFF771FF03002370FB685A1C85
:10102000FA601A007B689B187A1912781A703B686C
:10103000013BFA689A4204DA0B23FB181B780A2B4F
:10104000DDD1FB68002B04DDFB687A68D318002231
:101050001A70FB681800BD4604B0B0BDA4010020A2
:101060000C01002080B500AF034B1800FFF770FFA4
:1010700003001800BD4680BD0C01002090B583B070
:1010800000AFFC1DFFF79BFF03002370FB1D1B78C7
:101090001800FFF785FFFB1D1B781800BD4603B045
:1010A00090BDB0B584B000AF78603960214B1B684B
:1010B000002B02D101235B4237E00023FB600B23AE
:1010C000FB1800221A701DE0C0461B4B1800FFF7EA
:1010D0003FFF031EF9D00B257C19174B1800FFF7B3
:1010E0000CFF030023702C003B191B781800FFF73E
:1010F00057FFFB685A1CFA601A007B689B183A1964
:1011000012781A703B68013BFA689A4204DA0B23A2
:10111000FB181B780D2BD7D1FB68002B04DDFB6877
:101120007A68D31800221A70FB681800BD4604B014
:10113000B0BDC046A40100200C01002080B582B0E3
:1011400000AF164B7B60164B3B6007E07A68131DBF
:101150007B603B68191D396012681A603A68114B50
:101160009A42F3D304E03B681A1D3A6000221A60E9
:101170003A680D4B9A42F6D30C4B3B6004E03B6857
:101180001A1D3A601B6898473A68094B9A42F6D391
:10119000C046C046BD4602B080BDC046A03400086F
:1011A0000000002068000020D0010020A0340008CA
:1011B000A034000880B500AF3B4B1A683A4B0121C0
:1011C0000A431A60C046384B1B6804221340FAD009
:1011D000354B0122DA60C046334BDB680C221340EA
:1011E000042BF9D1314B1A68304B02210A431A60A3
:1011F0002E4B1A682D4B01210A431A602A4B9A6B19
:10120000294B802149050A439A63294B8022120108
:101210001A60C046264B5B6810221340FAD1224B5D
:10122000DA68214B23490A40DA601F4BDA681E4B0B
:101230008821C9030A43DA601B4A1B4BD268DA6073
:10124000194A194BD268DA60174A174BD268DA602C
:10125000154B1A68144B18490A401A60124B1A6849
:10126000114B802149040A431A60C0460E4B1A688C
:1012700080239B041340F9D00B4BDA680A4B0321FF
:101280008A43DA60084BDA68074B03210A43DA60C5
:10129000C046054BDB680C2213400C2BF9D1C0462D
:1012A000C046BD4680BDC04600100240002002403E
:1012B00000700040FFFF02FFFFFFFFFE80B500AFA0
:1012C000024B1800FFF776FBFEE7C046B433000878
:1012D00080B500AF024B1800FFF76CFBFEE7C0467D
:1012E000E433000880B582B000AF7860FEE780B5D7
:1012F00082B000AF786001235B421800BD4602B0A7
:1013000080BD80B584B000AFF860B9607A60044BEE
:101310000C221A6001235B421800BD4604B080BD58
:10132000B801002080B500AF034B0B221A600123E7
:101330005B421800BD4680BDB801002080B582B078
:1013400000AF786039603B68802292015A600023C8
:101350001800BD4602B080BD80B500AF0123180063
:10136000BD4680BD80B582B000AF78603960044B67
:1013700016221A6001235B421800BD4602B080BDF0
:10138000B801002080B582B000AF78603960044BAE
:101390001F221A6001235B421800BD4602B080BDC7
:1013A000B801002080B584B000AFF860B9607A6001
:1013B00000231800BD4604B080BD80B582B000AFE8
:1013C000786039603B68802292015A6000231800DF
:1013D000BD4602B080BD80B582B000AF7860012309
:1013E0005B421800BD4602B080BD80B582B000AF40
:1013F0007860044B02221A6001235B421800BD464C
:1014000002B080BDB801002080B582B000AF786026
:10141000044B0A221A6001235B421800BD4602B049
:1014200080BDC046B801002080B582B000AF7860B2
:101430007B68022B01D8012303E0044B09221A60C8
:1014400000231800BD4602B080BDC046B801002090
:1014500080B586B000AF7860124B7B61124B3B6168
:10146000124B1B68002B02D1104B7A691A600F4B8C
:101470001B68FB600D4B1A687B68D3183A699A4267
:1014800005D20B4B0C221A6001235B4206E0074B8E
:101490001A687B68D218054B1A60FB681800BD46B5
:1014A00006B080BDD001002000100020B401002053
:1014B000B801002080B588B000AFF860B9607A60EC
:1014C0000023BB61FB68002B22D10023FB611AE0E3
:1014D000FFF79DFA03001A0017217B181A70BB68EA
:1014E0005A1CBA607A181278D2B21A70BB690133EA
:1014F000BB617B181B78DBB20A2B01D1BB690EE004
:10150000FB690133FB61FA697B689A42E0DB05E025
:10151000054B09221A6001235B4200E0BB691800F9
:10152000BD4608B080BDC046B801002080B586B079
:1015300000AFF860B9607A60FB68013B012B11D8FD
:1015400000237B6109E0BB685A1CBA601B78180055
:10155000FFF74EFA7B6901337B617A697B689A42B7
:10156000F1DB05E0054B09221A6001235B4200E034
:101570007B681800BD4606B080BDC046B80100209B
:1015800003460B437FD4002243088B4274D30309E4
:101590008B425FD3030A8B4244D3030B8B4228D385
:1015A000030C8B420DD3FF22090212BA030C8B42AB
:1015B00002D31212090265D0030B8B4219D300E04B
:1015C000090AC30B8B4201D3CB03C01A5241830BD0
:1015D0008B4201D38B03C01A5241430B8B4201D380
:1015E0004B03C01A5241030B8B4201D30B03C01AA9
:1015F0005241C30A8B4201D3CB02C01A5241830A23
:101600008B4201D38B02C01A5241430A8B4201D351
:101610004B02C01A5241030A8B4201D30B02C01A7B
:101620005241CDD2C3098B4201D3CB01C01A5241E2
:1016300083098B4201D38B01C01A524143098B426B
:1016400001D34B01C01A524103098B4201D30B0154
:10165000C01A5241C3088B4201D3CB00C01A524179
:1016600083088B4201D38B00C01A524143088B423E
:1016700001D34B00C01A5241411A00D201465241D7
:10168000104670475DE0CA0F00D04942031000D3F6
:101690004042534000229C4603098B422DD3030A4B
:1016A0008B4212D3FC22890112BA030A8B420CD35B
:1016B000890192118B4208D3890192118B4204D384
:1016C00089013AD0921100E08909C3098B4201D304
:1016D000CB01C01A524183098B4201D38B01C01A3E
:1016E000524143098B4201D34B01C01A52410309B5
:1016F0008B4201D30B01C01A5241C3088B4201D364
:10170000CB00C01A524183088B4201D38B00C01A10
:101710005241D9D243088B4201D34B00C01A5241E7
:10172000411A00D20146634652415B10104601D374
:101730004042002B00D54942704763465B1000D3FE
:10174000404201B5002000F005F802BD0029F8D0A4
:1017500016E770477047C046002310B59A4200D183
:1017600010BDCC5CC4540133F8E7030082189342E7
:1017700000D1704719700133F9E70EB417B5041E94
:1017800004D08369002B01D100F022FB06AB2000BE
:10179000059AA168019300F065FF1EBC08BC03B068
:1017A000184700000FB40B4B13B51C68002C05D074
:1017B000A369002B02D1200000F00AFB05AB20003A
:1017C000049AA168019300F04DFF16BC08BC04B058
:1017D0001847C0460400002070B505000E00002820
:1017E00004D08369002B01D100F0F2FAAB69AC6838
:1017F000002B02D1280000F0EBFA2D4B9C4222D1A5
:101800006C68636EDB0705D4A3899B0502D4A06DC9
:1018100000F0BAFBA3891B0702D52369002B29D14D
:101820002100280000F0F8F8002823D001256D429F
:10183000636EDB0705D4A3899B0502D4A06D00F07D
:10184000A9FB280070BD1B4B9C4201D1AC68D8E7B6
:10185000194B9C42D5D1EC68D3E70136A360002B2D
:1018600004DAA2699A4216DC0A2914D023685A1CA9
:1018700022601970A3683178013B0029EDD1A36083
:10188000002B0FDA280022000A3100F065F80A2543
:10189000431CCDD1CAE72200280000F05DF8431CAC
:1018A000E8D1C3E70A2523685A1C22601D70BFE7F0
:1018B00028340008483400080834000810B5034BE9
:1018C00001001868FFF788FF10BDC0460400002023
:1018D0000CB400B59DB00291069109491EAB079169
:1018E0000491084904CB059102A9019300F084FDFD
:1018F0000023029A13701DB008BC02B01847C046FE
:10190000FFFFFF7F0802FFFF0EB400B50B499CB03C
:101910001DAB02900690079104910948094904CB38
:101920000591006802A9019300F066FD0023029A68
:1019300013701CB008BC03B01847C046FFFFFF7F00
:10194000040000200802FFFF0023C25C0133002ACC
:10195000FBD1581E70470000F8B505000E001400BA
:10196000002804D08369002B01D100F031FA224B0A
:101970009C422ED16C68A369A360A3891B0732D552
:101980002369002B2FD023682269F7B2981A636964
:10199000F6B2834205DC2100280000F041F900285E
:1019A00027D1A3680130013BA36023685A1C226041
:1019B0001F706369834204D0A389DB0707D50A2E11
:1019C00005D12100280000F02BF9002811D13000AA
:1019D000F8BD0A4B9C4201D1AC68CCE7084B9C4255
:1019E000C9D1EC68C7E72100280000F015F80028ED
:1019F000C9D001267642EAE72834000848340008B6
:101A00000834000810B5034B0A0001001868FFF7FE
:101A1000A3FF10BD04000020374B70B51D68060001
:101A20000C00002D05D0AB69002B02D1280000F07E
:101A3000CFF9324B9C420FD16C680C23E25E93B21B
:101A400011072DD4D90611D409230120336037336F
:101A50001343A381404270BD294B9C4201D1AC6825
:101A6000EBE7284B9C42E8D1EC68E6E75B0713D52F
:101A7000616B002908D023004433994202D0300022
:101A800000F0F6FA002363632422A3899343A38121
:101A900000236360236923600823A2891343A38181
:101AA0002369002B0BD1A0218022A38989009200F9
:101AB0000B40934203D02100300000F095FA0C2235
:101AC000A35E01201A0099B2024003420FD0002207
:101AD000A26062695242A261002022698242BAD1A8
:101AE0000A06B8D540221343A3810138B3E788071B
:101AF00000D46269A260EFE70400002028340008E7
:101B00004834000808340008F7B58B8905000C003C
:101B10001A075FD44A68002A04DC0A6C002A01DC38
:101B20000020FEBDE76A002FFAD0002280212E6837
:101B30002A601A0049010A400B4234D0606DA38923
:101B40005B0706D56368C01A636B002B01D0236C5A
:101B5000C01A0200216A00232800E76AB847A18959
:101B6000431C06D12B681D2B31D82C4ADA40D307F1
:101B70002DD50023636023692360CB0405D5431C66
:101B800002D12B68002B00D16065616B2E600029AB
:101B9000C6D023004433994202D0280000F068FAEE
:101BA00000206063BDE701232800216AB847431C79
:101BB000C5D12B68002BC2D01D2B01D0162B01D113
:101BC0002E60ADE74023A2891343A381A9E74023F8
:101BD0000B43FAE70F69002FA2D00A680F60D21BEF
:101BE000019200229B0700D14A69A260019B002B51
:101BF00000DC95E73A002800019B216AA66AB047FD
:101C0000002806DC40230120A28940421343A3811F
:101C100087E7019B3F181B1A0193E7E7010040206B
:101C20000B6970B505000C00002B02D100252800BF
:101C300070BD002804D08369002B01D100F0C8F8E2
:101C4000144B9C421BD16C680C22A35E002BEDD080
:101C5000626ED20704D49B0502D4A06D00F094F903
:101C600028002100FFF750FF636E0500DB07DED47C
:101C7000A3899B05DBD4A06D00F08CF9D7E7064B58
:101C80009C4201D1AC68DFE7044B9C42DCD1EC689C
:101C9000DAE7C04628340008483400080834000851
:101CA000010010B5002805D1054B0649186800F061
:101CB00046F910BD044B1868FFF7B2FFF9E7C046BC
:101CC00068340008211C000804000020002310B51F
:101CD0000400036043608360818143661900C28110
:101CE00003614361836108225C30FFF73EFD054BD1
:101CF00024626362044BA362044BE362044B2363DC
:101D000010BDC046192C0008452C00087D2C000889
:101D1000A92C000810B5024900F011F910BDC04609
:101D2000211C0008436E10B5DB0705D483899B0591
:101D300002D4806D00F028F9002010BD436E10B56C
:101D4000DB0705D483899B0502D4806D00F022F95E
:101D5000002010BD70B568254A1E55430E002900AD
:101D6000743100F0F1F9041E08D000212A0001604E
:101D700046600C30A0606832FFF7F7FC200070BDB1
:101D800010B5024B1868FFF7C5FF10BD6834000896
:101D900010B5024800F0F8F810BDC046C20100209E
:101DA00010B5024800F0F6F810BDC046C201002090
:101DB00010B5024800F0E8F810BDC046C30100208D
:101DC00010B5024800F0E6F810BDC046C30100207F
:101DD00013B50400FFF7ECFFA369002B02D0FFF757
:101DE000EFFF13BDA364E3642365134B134A1B6821
:101DF000A2620193A34201D10123A361200000F05C
:101E00001FF86060200000F01BF8A060200000F0C8
:101E100017F800220421E0606068FFF757FF0122F5
:101E20000921A068FFF752FF02221221E068FFF7A4
:101E30004DFF0123A361D2E768340008151D000897
:101E4000F8B50700FFF7A4FF1F4B1E68B369002B0E
:101E500002D13000FFF7BCFF4836B4687368013B1D
:101E600004D53368002B22D03668F6E70C22A55E35
:101E7000002D1AD12000154B5830E360656600F044
:101E80007FF8FFF78DFF2000082229002560A5605C
:101E9000656025616561A5615C30FFF766FC65637F
:101EA000A563A564E5642000F8BD6834D7E7042184
:101EB0003800FFF74FFF041E3060D5D1FFF770FFE9
:101EC0000C233B60EFE7C046683400080100FFFFC9
:101ED00010B5FFF75DFF034B0349186800F014F8D5
:101EE00010BDC04604000020251D000810B5044B9D
:101EF0000449186800F008F8FFF752FF10BDC0460B
:101F0000040000203D1D0008F7B5483004000026FD
:101F10000191A5686768013F04D52468002CF8D1B9
:101F20003000FEBDAB89012B07D90E22AB5E013319
:101F300003D02800019B984706436835EBE7F7B5C7
:101F4000040006000027019148346368A5680093E7
:101F5000009B013B009304D52468002CF5D1380088
:101F6000FEBDAB89012B08D90E22AB5E013304D034
:101F700029003000019B984707436835E8E7704720
:101F800070477047704770477047012070470120C5
:101F9000704770477047000070B50E001D000E239B
:101FA000C95E140096B0002908DA0C22B35E002244
:101FB0002A601B0611D48023DB000FE06A4600F084
:101FC0009FFE0028F1DBF02301991B021940054B0D
:101FD000C9184B4259412960EDE740230020236096
:101FE00016B070BD00E0FFFFF7B502268B89050033
:101FF0000C00334206D023004733236023610123C2
:102000006361F7BD6A4601ABFFF7C6FF00990700A1
:10201000280000F099F8002808D10C22A35E9A0548
:10202000EFD4032293431E43A681E4E70F4BAB6238
:102030008023A28920601343A381009B20616361F8
:10204000019B002B0DD028000E23E15E00F0D2FF93
:10205000002806D00322A38993431A0001231343C7
:10206000A381A0890743A781CBE7C046151D0008BF
:1020700070B50500002910D00C1F2368002B00DA72
:10208000E418280000F0FAFF1D4A1368002B05D160
:1020900063601460280000F0F9FF70BDA34208D906
:1020A000216860188342F3D118685B684118216089
:1020B000EEE71A005B68002B01D0A342F9D9116842
:1020C0005018A0420BD120680918501811608342A3
:1020D000E0D118685B68411811605360DAE7A042EC
:1020E00002D90C232B60D5E721686018834203D105
:1020F00018685B684118216063605460CAE7C04695
:10210000C801002070B50F4E0D0031680400002991
:1021100002D100F06FFD30602900200000F06AFD60
:10212000431C0AD00323C51C9D43A84207D0291A8B
:10213000200000F05FFD431C01D101256D42280005
:1021400070BDC046CC010020F7B50322CB1C9343E1
:10215000083306001F000C2B32D20C27B94231D8AD
:10216000300000F08BFF324D2B681C00002C2ED16C
:1021700039003000FFF7C6FF0400431C1ED12C6855
:102180002500002D4AD123682900E318300001936F
:1021900000F030FD019B834243D123680337FF1ACF
:1021A00003239F4308370C2F00D20C27390030003F
:1021B000FFF7A8FF431C34D02368DF19276013E022
:1021C000002BCBDA0C23002533602800FEBD2268EB
:1021D000D11B20D40B2917D9E2192760A34211D1B2
:1021E0002A606368116053603000250000F04EFFE4
:1021F00007220B35231D9543EA1A9D42E5D05B1B50
:10220000A350E2E75A60ECE76268A34201D12A607A
:10221000EAE75A60E8E723006468A7E72C006D68E6
:10222000AFE70C233000336000F030FFCDE7C0464D
:10223000C8010020F0B58E6885B007000C0003923D
:1022400001939E423CD890238A89DB001A4234D005
:102250000969236860695B1A029303234343DD0F16
:10226000ED18019B029801331B186D10AB4200D989
:102270001D00530532D529003800FFF765FF061E03
:1022800009D10C233B6040230120A2894042134323
:10229000A38105B0F0BD029A2169FFF75DFAA38919
:1022A000144A1A4080231343A381029B2661F61827
:1022B00026606561019EED1AA560019B9E4200D9D2
:1022C000019E32000399206800F0C5FEA36800203B
:1022D0009B1BA36023689E192660DAE72A0038005A
:1022E00000F0DCFE061EE0D138002169FFF7C0FED9
:1022F000C7E7C0467FFBFFFFF0B5936887B00C00CF
:1023000017000290002B65D01368039300230593F8
:102310000193019B002B2DD0A6689E4249D89023A3
:10232000A289DB001A4241D00320216923685B1A8D
:10233000049363694343DD0FED18049B0198013357
:102340001B186D10AB4200D91D00530546D529005E
:102350000298FFF7F9FE061E16D10C23029A0120FF
:1023600013604023A28940421343A3810023BB6032
:102370007B6031E0039B1B680593039B5B680193C3
:10238000039B08330393C4E7049A2169FFF7E4F938
:10239000A389184A1A4080231343A381049B266112
:1023A000F61826606561019EED1AA560019B9E42AC
:1023B00000D9019E32000599206800F04CFEA36808
:1023C000019A9B1BA36023689E19BB6826609B1A19
:1023D000BB60CFD10020786007B0F0BD2A00029822
:1023E00000F05CFE061ED9D121690298FFF740FE7D
:1023F000B3E7C0467FFBFFFFF0B5A1B003901D001F
:102400008B890F0016001B0611D50B69002B0ED10E
:102410004021FFF799FE38603861002805D10C2370
:10242000039A0138136021B0F0BD40237B61002383
:1024300008AC6361203363761033A37607953500CB
:102440002B78002B01D0252B47D1AB1B0593B54230
:102450000CD0320039000398FFF7ECFE431C00D18A
:10246000AEE06269059B9446634463612B78002B60
:1024700000D1A5E0012200235242626004A9543237
:1024800052186E1C2360E360A3601370A3650522DD
:102490003178544800F0D4FD751C00281FD1226803
:1024A000D30604D5532304A95B1820211970130700
:1024B00004D5532304A95B182B21197033782A2BD8
:1024C00016D0350000210A20E3682A786E1C303AC5
:1024D000092A4ED9002911D117E00135B0E7414B47
:1024E0002268C01A0123834013432E002360CEE7E5
:1024F000079B191D1B680791002B01DB0B9304E060
:102500005B42E3600223134323602B782E2B0AD116
:102510006B782A2B35D1079B02351A1D1B68079251
:10252000002B2BDB0993304E03223000297800F07A
:1025300087FD002806D04023801B83402268013598
:10254000134323602978062228486E1C217600F068
:1025500077FD00283CD0264B002B25D10722079B76
:1025600007339343083307936369049A9B186361A5
:1025700065E74343350001219B18A6E701235B4231
:10258000D0E700230A201A000135636029786E1C09
:102590003039092903D9002BC5D00992C3E742433A
:1025A000350001235218F1E707AB00933A002100F0
:1025B000104B039800E000BF0490049B0133D3D17B
:1025C000BB890D985B0600D42DE7012040422AE725
:1025D00007AB00933A002100064B039800F0F8F98E
:1025E000EAE7C0466C34000872340008763400080C
:1025F0000000000035220008936810B5013B93608D
:10260000002B04DA9469A34207DB0A2905D013687A
:10261000581C10601970080010BDFFF79DF90100EB
:10262000F9E7F8B506000F001400D518AC4201D147
:10263000002007E021783A003000FFF7DDFF013489
:10264000431CF3D1F8BD936810B51400002B02D1E0
:102650001800536010BD00F065FB0023A3606360A9
:10266000F8E70000F0B5A1B006000C001F000392CF
:10267000002804D08369002B01D1FFF7A9FB8E4B02
:102680009C421CD17468636EDB0705D4A3899B054B
:1026900002D4A06DFFF778FCA3891B0702D523693C
:1026A000002B1DD121003000FFF7B6F9002817D00C
:1026B000636EDB070DD50120404221B0F0BD7F4B9A
:1026C0009C4201D1B468DEE77D4B9C42DBD1F468CB
:1026D000D9E7A3899B05EED4A06DFFF75BFCEAE781
:1026E000002308AD6B6120336B761033AB76079710
:1026F000039F3B78002B01D0252B4ED1039BFB1A67
:102700000593039B9F420DD0059B21003000039A47
:10271000FFF787FF431C00D1B5E06A69059B94462B
:1027200063446B613B78002B00D1ACE001227B1C41
:102730000393002352426A6004A9543252182B605A
:10274000EB60AB601370AB65039B052219785D48A5
:1027500000F076FC039B5F1C002820D12A68D3067A
:1027600004D5532304A95B1820211970130704D53D
:10277000532304A95B182B211970039B1B782A2B68
:1027800016D00021EB68039F3A78781C303A8446D3
:10279000092A4FD9002911D117E00137A9E7494B80
:1027A0002A68C01A0123834013432B600397CBE7A9
:1027B000079B191D1B680791002B01DB0B9304E09D
:1027C0005B42EB60022313432B603B782E2B0AD134
:1027D0007B782A2B37D1079B02371A1D1B6807927B
:1027E000002B2DDB099303223978374800F028FCB1
:1027F000002807D0344B2A68C01A40238340134373
:1028000001372B6039787B1C0622304803932976E8
:1028100000F016FC002845D02D4B002B27D10722B5
:10282000079B07339343083307936B69049A9B18FC
:102830006B615DE70A214B4367469B180939A3E7A3
:1028400001235B42CEE700231A0001376B60397821
:10285000781C30398446092903D9002BC3D009924A
:10286000C1E70A235A4367465218093BEFE707AB13
:102870000093220029003000164B00E000BF0490B6
:10288000049B0133D1D1636EDB0705D4A3899B057B
:1028900002D4A06DFFF77EFBA3895B0600D50AE793
:1028A0000D980AE707AB0093220029003000094B7E
:1028B00000F08EF8E3E7C0462834000848340008EA
:1028C000083400086C3400087234000876340008BC
:1028D000000000002326000810B513000A000100C4
:1028E00002480068FFF7BEFE10BDC046040000208D
:1028F000F7B5150001938A680B690C0000909342AC
:1029000000DA130022002B6043321278002A01D033
:1029100001332B6023689B0602D52B6802332B60A2
:102920002268062317001F401A4227D02300433392
:102930001B785A1E93412268920630D422000199D6
:102940000098089E4332B047431C25D006232068D8
:102950002A68E16800250340042B03D18D1AEB435C
:10296000DB171D40A3682269934201DD9B1AED1815
:102970000027BD4220D1002010E00137E3682A681B
:102980009B1ABB42D2DD2200012301990098089EC8
:102990001932B047431CF0D101204042FEBD302027
:1029A000E1184331087021005A1C45310978A218FA
:1029B000433202331170C1E72200012301990098CC
:1029C000089E1A32B047431CE6D00137D1E7000019
:1029D000F0B58BB006920A0043320793059004923B
:1029E0000A7E0C00109B782A07D8622A09D8002A90
:1029F00000D1C1E0582A00D18CE026004236327066
:102A000022E0100063381528F7D800F093FB160079
:102A10001F00F6FFF6FFF6FFF6FF1F00F6FFF6FFBA
:102A2000F6FFF6FFA80036009A00F6FFF6FFB900A1
:102A3000F6FF3600F6FFF6FF9E0026001A684236C3
:102A4000111D1960136833700123A7E00868196825
:102A50000A1D05060BD50D681A60002D03DA2D231B
:102A6000049A6D421370614B0A2703931BE00D68B3
:102A70001A604106F1D52DB2EFE70D681968081DFF
:102A800018602E0601D50D6803E06D06FBD50D68B4
:102A9000ADB2564B082703936F2A00D002372300AC
:102AA000002243331A706368A360002B03DB042207
:102AB000216891432160002D02D1049E002B0CD08F
:102AC000049E2800390000F0C5FB039B013E5B5CBF
:102AD00033702B0005009F42F3D9082F09D12368DA
:102AE000DB0706D563682269934202DC3023013E8E
:102AF0003370049B9B1B2361079B21000093059867
:102B0000069B09AAFFF7F4FE431C4CD1012040426A
:102B10000BB0F0BD45310A70344A03921A6821683F
:102B200020CA1A60080616D5CB0702D52023194300
:102B300021601027002DB2D1202322689A43226001
:102B4000ADE7202209680A4322602200782145323D
:102B50001170274AE1E74806E6D5ADB2E4E71A6806
:102B60000D68101D4969186013682E0601D519609B
:102B700002E06D06FBD519800023049E2361BBE7AC
:102B80001A68111D1960166800213000626800F093
:102B900057FA002801D0801B60606368236100231E
:102BA000049A1370A8E72369320006990598079DD7
:102BB000A847431CAAD023689B0715D4099BE0684B
:102BC0009842A5DA1800A3E7220001230699059888
:102BD000079E1932B047431C98D00135E368099A23
:102BE0009B1AAB42F0DCE9E70025F7E77D340008EB
:102BF0008E340008002370B5064D040008002B60D9
:102C0000FEF726FC431C03D12B68002B00D0236069
:102C100070BDC046B801002070B50C000E25495F9C
:102C200000F06CFA002803DB636D1B18636570BD50
:102C3000A389024A1340A381F9E7C046FFEFFFFFD3
:102C400000207047F8B51F008B8905000C001600A6
:102C5000DB0505D50E23C95E0022022300F0DCF956
:102C6000A389054A28001340A38132000E23E15EA8
:102C70003B0000F01FF8F8BDFFEFFFFF70B50C0040
:102C80000E25495F00F0C8F9A389421C03D1054A0B
:102C90001340A38170BD802252011343A38160655C
:102CA000F8E7C046FFEFFFFF10B50E23C95E00F046
:102CB00015F810BD70B50400080011001A000023BB
:102CC000054D2B60FEF732FC431C03D12B68002B13
:102CD00000D0236070BDC046B8010020002370B54D
:102CE000064D040008002B60FEF701FB431C03D1D6
:102CF0002B68002B00D0236070BDC046B8010020B7
:102D0000002370B5064D0400080011002B60FEF78B
:102D100015FB431C03D12B68002B00D0236070BD32
:102D2000B8010020F0B5936887B00C00170003903D
:102D3000002B02D1002007B0F0BD8B891B0759D5AD
:102D40000B69002B56D03B6802220293A38918001E
:102D50001040134275D1012201211A400B4200D1CB
:102D6000ADE0060001900490049B002B00D116E119
:102D700000280CD11A000A21300000F061F9049BF0
:102D800001330193002802D00130831B0193019B82
:102D9000049A0593934200D90592206822696369D9
:102DA000904200D804E1A2689D18059AAA4200DC6E
:102DB000FEE031002A0000F04EF9236821005B1983
:102DC00003982360FEF72CFF002873D1019B01209C
:102DD0005B1B019305D121000398FEF721FF00281A
:102DE00068D1049B76195B1B0493BB685D1BBD60B7
:102DF000BAD19FE721000398FEF70EFE0028A2D06B
:102E00000120404297E7029B1B680193029B5D688B
:102E100008330293002DF6D0724A2B00954200D958
:102E20001300019A216A0398A66AB047002841DD81
:102E3000019B2D1A1B180193BB68181AB860E9D1C1
:102E400078E700231D000193E4E7029B1B680493CD
:102E5000029B5B680193029B08330293019B002B4A
:102E6000F3D08023A2899B002068A5681A4264D011
:102E7000019B9D4238D89023DB001A4234D021694F
:102E8000431A0320059363695843059BC60F361800
:102E9000019801331B187610B34200D91E00530568
:102EA0003CD531000398FFF74FF9051E0AD10C23DA
:102EB000039A13604023A2891343A381A0E70492DD
:102EC0000192CBE7059A2169FEF746FCA389464AA1
:102ED0001A4080231343A381059B2561ED182560CB
:102EE0006661019DF61AA660019EB54200D93500C3
:102EF0002A000499206800F0AEF8A3685B1BA36069
:102F000023685D192560049B9B190493019B9B1BFF
:102F10000193BB689E1BBE60A0D10BE732000398F3
:102F200000F0BCF8051ED7D121690398FFF7A0F87F
:102F30008022A3899343A381B9E72369834203D302
:102F40006669019B9E4217D9019B9D4200D91D00D5
:102F50002A00049900F07FF8A36822685B1B5219CD
:102F60002E00A3602260002BCDD121000398FEF734
:102F700057FE0028C7D09DE7019A1C4B10009A42CB
:102F800000D91B483100FEF7FBFA3300049A434393
:102F9000216A0398A56AA847061EB4DC8AE7029B4B
:102FA00000201E685B680493029B08330293DBE6F3
:102FB000059A934208DCA56A3200216A0398A84763
:102FC000051E00DD02E775E7059A310000F043F8C1
:102FD000059AA36815009B1AA36023689B182360B9
:102FE000F4E6C04600FCFF7F7FFBFFFFFEFFFF7F94
:102FF000FFFFFF7F002370B5064D040008002B6023
:10300000FEF712FA431C03D12B68002B00D023607B
:1030100070BDC046B801002070B504000800110062
:103020001A000023054D2B60FEF7BCF9431C03D1A9
:103030002B68002B00D0236070BDC046B801002073
:10304000C9B28218904201D10020704703788B42A8
:10305000FBD00130F6E710B5884202D98B189842B0
:1030600003D3002307E08B5C8354013AFBD210BDED
:10307000CC5CC45401339A42FAD1F8E710B5024847
:10308000FEF782FF10BDC046C101002010B5024806
:10309000FEF780FF10BDC046C1010020F7B5070054
:1030A0000E001400002905D11100FFF74DF80500AE
:1030B0002800FEBD002A03D1FEF7DAFF2500F7E75E
:1030C00000F030F80190844203D835004308A34251
:1030D000EED321003800FFF737F8051EE8D0019B3A
:1030E00022009C4200D91A0031002800FEF734FB70
:1030F00031003800FEF7BCFFDAE7000070B50400CD
:10310000080011001A000023054D2B60FEF7D2F9CC
:10311000431C03D12B68002B00D0236070BDC04638
:10312000B80100200B1F1B68181F002B01DA0B5879
:10313000C018704703B47146490840004900095E51
:1031400049008E4403BC7047002243088B4274D36D
:1031500003098B425FD3030A8B4244D3030B8B4298
:1031600028D3030C8B420DD3FF22090212BA030CA1
:103170008B4202D31212090265D0030B8B4219D382
:1031800000E0090AC30B8B4201D3CB03C01A5241A2
:10319000830B8B4201D38B03C01A5241430B8B42EA
:1031A00001D34B03C01A5241030B8B4201D30B03D3
:1031B000C01A5241C30A8B4201D3CB02C01A5241FA
:1031C000830A8B4201D38B02C01A5241430A8B42BD
:1031D00001D34B02C01A5241030A8B4201D30B02A6
:1031E000C01A5241CDD2C3098B4201D3CB01C01AC0
:1031F000524183098B4201D38B01C01A52414309CA
:103200008B4201D34B01C01A524103098B4201D3B7
:103210000B01C01A5241C3088B4201D3CB00C01A24
:10322000524183088B4201D38B00C01A524143089C
:103230008B4201D34B00C01A5241411A00D20146C1
:10324000524110467047FFE701B50020FEF782FAB1
:1032500002BDC0460029F7D076E77047436F6D6D19
:10326000616E643A20257300526573706F6E7365EA
:103270003A2025730000000041542B445649443045
:103280003030300D0A0000000D0A4A44592D343008
:10329000204D617374657220746573740D000000B5
:1032A00041542B5645520D0A0000000041542B4258
:1032B0004155440D0A00000041542B524649440D2B
:1032C0000A00000041542B445649440D0A000000F6
:1032D00041542B5246430D0A0000000041542B502C
:1032E0004F57450D0A00000041542B434C53530DDA
:1032F0000A00000041542B44564944414242410DCA
:103300000A0000004175746F5F6D6F6465200000F6
:103310004D616E75616C5F6D6F646520000000002B
:10332000636F696E5F7069636B696E672000000090
:10333000427574746F6E733A2025730A00000000A2
:1033400025730000253033642C253033640A0000D7
:10335000536C61766520736179733A2025730D0093
:103360002A2A2A20424144204D45535341474520B3
:103370002A2A2A3A2025730D000000004E4F2052C1
:103380004553504F4E53450D000000000D0A526545
:103390007475726E65642066726F6D206D61696E02
:1033A00028292E202053797374656D2073746F70F3
:1033B0002E000000496E7465727275707420776912
:1033C00074686F75742068616E646C65722028493A
:1033D0005352292E202053797374656D2073746FB6
:1033E000702E000048617264204661756C7420691B
:1033F0006E746572727570742E20205379737465C3
:103400006D2073746F702E0000000000000000003B
:1034100000000000000000000000000000000000AC
:10342000000000000000000000000000000000009C
:10343000000000000000000000000000000000008C
:10344000000000000000000000000000000000007C
:10345000000000000000000000000000000000006C
:10346000000000000000000008000020232D302B89
:103470002000686C4C006566674546470030313275
:1034800033343536373839414243444546003031CC
:10349000323334353637383961626364656600002B
:1034A000B0010020080000200000000028340008BF
:1034B0004834000808340008000000000000000044
:1034C00000000000000000000000000000000000FC
:1034D00000000000000000000000000000000000EC
:1034E00000000000000000000000000000000000DC
:1034F00000000000000000000000000000000000CC
:083500000000000000000000C3
:04000005080000B936
:00000001FF
